:1000000000800020BD010000A16800006D680000B4
:100010006D6800006D6800006D6800006D6800008C
:100020006D6800006D6800006D680000A168000048
:10003000A16800006D680000A16800005D68000014
:10004000A1680000A1680000A1680000A16800008C
:10005000A1680000A1680000A1680000A16800007C
:10006000A1680000A1680000A1680000A16800006C
:10007000A1680000A1680000A1680000A16800005C
:10008000A1680000A1680000A1680000A16800004C
:10009000A1680000A1680000A1680000A16800003C
:1000A000214B00002D4B0000A1680000A16800005A
:1000B000A1680000A1680000A1680000A16800001C
:1000C000A1680000A1680000A1680000A16800000C
:1000D000A1680000A1680000A1680000A1680000FC
:1000E000A1680000A1680000A1680000A1680000EC
:1000F000A1680000AD720000A168000069850000E1
:10010000A1680000158A0000A1680000A168000035
:10011000A1680000A1680000A1680000A1680000BB
:10012000A1680000A1680000A1680000A1680000AB
:10013000A1680000A1680000A1680000A16800009B
:10014000A1680000A1680000A1680000A16800008B
:10015000E5600000FD600000156100002D610000F9
:10016000A168000049750000A1680000A1680000B6
:10017000A1680000A1680000A1680000A16800005B
:10018000A1680000A1680000A1680000A16800004B
:10019000A1680000A1680000A1680000A16800003B
:1001A000A1680000A1680000A1680000A16800002B
:1001B000A1680000A1680000A1680000564B4CF245
:1001C000205210B51A804DF628121A8000BF00BFC9
:1001D00006F06AFB514B4FF010621A60504A9A6069
:1001E000504ADA60A3F53043203B1A6812F480725B
:1001F00004D14D490A604FF4A8521A604B4B1A784B
:10020000110703D51A7842F008021A70484B2A22C7
:100210001A700023474A48499818884204D247492F
:10022000595899500433F5E7454A464B9A424FF0E6
:10023000000302D242F8043BF7E74349434A5958C6
:1002400099500433B3F5DE7FF7D1414B802103F899
:10025000011B40498B42F9D13F4B1A603F4B0A22A8
:100260001A70A3F5805324225A70A0221A709A792A
:100270009207FCD59A79D406FCD4394B9A7902F0CE
:100280000C02082AF9D103221A7140225A719A7974
:100290009006FCD5324B9A795106FBD5314A32494A
:1002A00011600221516020221A702D4B9B7903F0BE
:1002B0000C030C2BF9D12D4B2D4A1A602D4B2E4AD5
:1002C0001A6000225A60072243F8042C2B4AC3F814
:1002D0000C2D62B606F05AFD134B1B68DA0705D5E4
:1002E000274806F0C5FC274B274A1A60274B1B7886
:1002F0005B0609D5234C244A2368934204D1204845
:1003000006F0B6FC002323600CF034F906F0D2FAB4
:1003100006F002FAFEE700BF0E20054030800440E0
:10032000823F04000100002B14D0034002D007409C
:1003300000E007406087FF1F488DFF1F58D801006D
:10034000488DFF1FE0AFFF1F000000000082FF1F6D
:1003500000E400E05FE400E008ED00E0005006404B
:100360000040064044800440000003010480044033
:10037000C010050014E000E0FF760100000020201E
:10038000D44104571CE00340A5C3945A00F0074031
:10039000FFFFFFFFFFFFFFFFFFFFFFFFFFFFFFFF6D
:1003A000FFFFFFFFFFFFFFFFFFFFFFFFFFFFFFFF5D
:1003B000FFFFFFFFFFFFFFFFFFFFFFFFFFFFFFFF4D
:1003C000FFFFFFFFFFFFFFFFFFFFFFFFFFFFFFFF3D
:1003D000FFFFFFFFFFFFFFFFFFFFFFFFFFFFFFFF2D
:1003E000FFFFFFFFFFFFFFFFFFFFFFFFFFFFFFFF1D
:1003F000FFFFFFFFFFFFFFFFFFFFFFFFFFFFFFFF0D
:10040000FFFFFFFFFFFFFFFFFFFFFFFFFEFFFFFFFD
:1004100010B5054C237833B9044B13B10448AFF33E
:1004200000800123237010BD488DFF1F00000000D5
:1004300058D8010008B5064B1BB106480649AFF372
:1004400000800648036813B1054B03B1984708BD07
:100450000000000058D801004C8DFF1F488DFF1F81
:100460000000000000207047014B0360704700BF90
:10047000E0D3000013B503681C6800230A468DF81A
:1004800000308DF801308DF802308DF804308DF891
:1004900005308DF80630694601ABA04702B010BDAB
:1004A00010B5034B0360044606F040FA204610BD29
:1004B000E0D30000074BDA6A5104FBD44FF08052BE
:1004C0005A63DA6A5204FCD4024B4FF080525A63EA
:1004D000704700BF00C0024008B50B20012106F0A4
:1004E00005FC01210D2006F001FC0B4A0B4B1168A5
:1004F00011F4805F04D141F480511160084ADA6040
:100500001A6842F000421A601A6822F4804222F00F
:1005100001021A6008BD00BF3C80044000C00240D8
:100520000100013810F5976118D000F58A5318338F
:100530008B4213D0A3F54A73094AC3F82822C3F8A3
:10054000D021C3F89021C3F84821C3F81021C3F883
:10055000D820C3F88820DA64DA60E9E7704700BF82
:10056000E0D3000038B5044608460D460CF011F9FA
:10057000236802465B6820462946984738BD38B54F
:100580000446FFF7EFFF0546204605F08DFE2844A0
:1005900038BDFFFF0449054A0260096881600022F6
:1005A00002710273704700BF14ADFF1FE0D300005B
:1005B0002DE9F04F0021044685B090220CF02BF875
:1005C000C8232360B44BA360B44BE36006234FF40D
:1005D000FA7523614B230221237525634FF47A7347
:1005E00065631E2501202171A361E56341F2883313
:1005F00084F8401005253221FF22E36184F82100B0
:10060000002384F83800216525662821032584F815
:10061000680019206275A27584F8282084F82A20C1
:1006200084F82B2084F82D2084F85510656684F812
:100630006C5084F86D10206784F8203084F82930DD
:1006400084F82C3084F8483084F8543084F87430BE
:1006500084F8762084F87D2084F87E20642284F853
:100660007F2040F2E242C4F88020082284F88420EF
:100670001422C4F888204FF44872C4F88C2004F582
:100680008A52122084F885104FF0000B04F5976809
:1006900004F5B261183284F8753084F8773084F844
:1006A000783084F8793084F87C0084F88630C4F897
:1006B000B0B484F8B43400928C46454600262E60CF
:1006C0006E602E7205F10C000291CDF80CC0FFF7A0
:1006D00061FF7348E86005F14C00C8EB0507FFF7C0
:1006E00059FF08F14C006F4A3A5038444FF0010A64
:1006F00080F8286005F18800FFF74CFF08F18800BA
:10070000694A3A503844DFF8BC91C0F828B0C0F8C4
:1007100048A005F1D800FFF73DFF029963487850E3
:10072000DDF80CC0C8EB0C0E0EEB0102022002F843
:10073000AE0CD9F8000042F8AC0CD9F8000042F831
:10074000A80C02F8B06C02F8AFAC02F8A4AC02F846
:10075000A3AC05F588700291CDF80CC0FFF71AFF25
:1007600008F58870524A3A503844D9F8002082621D
:1007700005F5A470FFF70EFF08F5A4704D4A3A5036
:100780003844D9F80020C26200230022C0E90E23B9
:1007900080F83060C0F834B005F5C870FFF7FAFE95
:1007A00008F5C870444A3A503844D9F80020C2626B
:1007B0000422826380F83060466305F5E870FFF735
:1007C000E9FE08F5E8703D4A3A503844D9F800206F
:1007D000C26200230022C0E90C2380F8486005F5BE
:1007E0000A70FFF7D7FE08F50A70354A3A500744F9
:1007F000D9F80020D9F800003863782078633220D7
:10080000B863D9F80000FA62C5F8E0024FF4AF7798
:100810009620C5F80803C5F80C73C5F81073C5F821
:100820001803C5F81C03AA272D20C5F8CC62C5F80B
:10083000D462C5F8D86285F8DC62C5F8E4B2C5F8C0
:10084000E8B2C5F8ECB2C5F8F062C5F8F462C5F8D4
:10085000F862C5F8FC62C5F80063C5F80463C5F822
:100860001473C5F8200385F824A3009BDDF80CC0A1
:10087000029905F54A759D420CF54A7C7FF41EAF3E
:1008800004F58A50183004F0C7FD04F58C53204657
:100890001E6005B0BDE8F08F000070420000B44259
:1008A000E0D4000010D5000098D40000C8D40000A7
:1008B00068D40000F8D4000028D5000080D40000DF
:1008C000B0D4000014ADFF1F10B54FF4FA6088B02B
:1008D00006F046FA43494448FFF751FE434844496D
:1008E00004F0BEF940484349FFF73CFE4248046823
:1008F00014F001041FD105F0F0FFE0B13F4BFF22DF
:100900001A735A739A73DA731A745A7401229A74A6
:100910003B4A5C6011685C619C6001B913603949B5
:100920000A6802B19360384A1A6000229A6132481C
:100930000B6005F0D8FF354930484FF4B072002302
:1009400004F090FF3248322200240270802307A96D
:100950008DF81D308DF81C408DF81E4004F034FFDA
:100960004FF4C87006F0FCF92A491F48FFF707FE4C
:1009700029491D48FFF7F6FD21460E2006F0B6F97D
:1009800004F0A8FB23491848FFF7F9FD234916484E
:10099000FFF7E8FD224B597B18690094A14214BF70
:1009A0000323234601930123224604930294234602
:1009B000039403F071FA17490B48FFF7E0FD19495A
:1009C0000948FFF7DCFD2146094802F0BBF816494B
:1009D0000548FFF7D4FD15490348FFF7D0FD08B0DF
:1009E00010BD00BF10D400008CAEFF1F349FFF1F4E
:1009F000A88DFF1F1ED400009C8DFF1F688DFF1F58
:100A000040ACFF1F50ACFF1FF8D30000388EFF1F13
:100A100038ACFF1F4DD4000027D4000036D40000AE
:100A2000E09FFF1F41D4000049D4000053D40000D0
:100A300010B5142005F000FE144B154C1A88104414
:100A40001880144B144A1B6813602268013222601C
:100A5000124A116801F57A718B420ED31049114880
:100A60001360FFF77FFD21680E4805F078FC0D4804
:100A70000D49FFF784FD002323600C4802F02EF996
:100A80000B48BDE8104004F0ADBA00BF348CFF1F26
:100A9000C89FFF1F14ADFF1FA08DFF1F309FFF1FBA
:100AA000BBD600008CAEFF1F5CD40000A88DFF1FDA
:100AB000349FFF1F0F4A104BD168994210B505D1E2
:100AC000116903F18043994200D110BD1268094BAE
:100AD00009480A4C12F4804F02D0D8601C6110BD46
:100AE00042F4804141F001011960D8601C611A6034
:100AF00010BD00BF00C002400000013800000178B6
:100B000010B5164B1A78013202F0070212F0010FED
:100B10001A7014BF80230023910744BF43F04003A1
:100B2000DBB2520748BF43F020031033D9B2002292
:100B3000837B2BB14FF4807494FBF3F30133DBB26E
:100B400011FB03F42412C37204720BB1013BC37294
:100B50000132032A00F10100EAD110BD648DFF1FAC
:100B60002DE9F04F8DB01546827C079119788DF8EC
:100B70002A10012A59789B78089504468DF82B1085
:100B80008DF82C3003D107A8FFF7BAFF0CE0002343
:100B90008DF829308DF828308DF827308DF82630E3
:100BA0008DF825308DF8243000238DF82D30704BD2
:100BB0007049DA68E2611B6923620B686E4A6362FE
:100BC00013686E4FA3623B686D4EE362A0693368A1
:100BD000236304F1180A8846914610B1026812682E
:100BE00090475046FFF766FF4FF410724FF4A27320
:100BF000C9F80020C8F800303A603360FFF75AFCAB
:100C00009DF82A0001909DF82B109DF82C209DF84E
:100C100027E09DF82800079B9DF829C002910392C8
:100C2000CDF810E0059015F1FF3566D31A7822B1A2
:100C30009DF8241082FA51F2D2B2019912FB01F20E
:100C40005978121221B19DF8250081FA50F1C9B2EC
:100C5000DDF808E0987811FB0EF1091220B19DF83B
:100C600026E080FA5EF0C0B2DDF80CE06FEA020B1D
:100C700010FB0EF00012CBF3811B6FEA010E6BF03C
:100C80003F0B0EF0C00E6FEA000A4BEA1E1E0AF080
:100C9000C00A4EEA9A0A5FFA8AFADFF8D4E0DEF870
:100CA0002CB01BF4804FF8D1CEF834A0DEF82CA085
:100CB0001AF4804FFAD1DFF8B8A0CAF83400DEF891
:100CC0002C004004FBD42A4841632949C86A4004E7
:100CD000FBD44A639DF8242004980599821A8DF864
:100CE00024209DF825208A1A8DF825209DF826209D
:100CF000C2EB0C028DF8262095E7FFF7DBFB1C4BBF
:100D0000DA6A12F4704F1946F9D1CA6A184B002AF0
:100D1000FBDADA6AA06942F01042DA624FF4A27399
:100D2000C9F80030626AC8F800203B60236B33606A
:100D300010B103685B6898470D48E269C368216A8F
:100D4000934202D103698B420ED00068084B4404E1
:100D500002D5DA60196107E040F4804444F00104F0
:100D60001C60DA60196118600DB0BDE8F08F00BF3B
:100D700000C0024008C0044018B0044014B0044051
:100D800004C004402DE9F04F8FB09146827C099158
:100D900019788DF83210012A59789B78CDF828906F
:100DA00004468DF833108DF8343003D109A8FFF7CD
:100DB000A7FE0CE000238DF831308DF830308DF82F
:100DC0002F308DF82E308DF82D308DF82C300323F8
:100DD0008DF835307B4B7C4FDA68E2611B6923620A
:100DE0003B687A4A63621368794EA3623368794D2F
:100DF000E362A0692B68236304F1180A904610B1DE
:100E00000268126890475046FFF754FE4FF4107284
:100E10004FF4A273C8F800203B6032602B60FFF7EC
:100E200049FB9DF832009DF83320019002929DF815
:100E300034309DF835C09DF82FE09DF830009DF8C6
:100E400031200393CDF810C0CDF814E0069007923E
:100E5000002149457CDA099B1A7822B19DF82C00C3
:100E600082FA50F2D2B2DDF804C0587812FB0CF2CC
:100E7000121220B19DF82DE080FA5EF0C0B2DDF8CC
:100E800008E010FB0EF093F802E00012BEF1000F34
:100E900005D09DF82EC08EFA5CFE5FFA8EFEDDF85E
:100EA0000CC06FEA020B1EFB0CFE4FEA2E2ECBF39A
:100EB000811B6FEA000C6BF03F0B0CF0C00C6FEA6B
:100EC0000E0A4BEA1C1C0AF0C00A4CEA9A0A5FFAA6
:100ED0008AFADFF8F0C0DCF82CB01BF4804FF8D1B0
:100EE000CCF834A0DCF82CA01AF4804FFAD1DFF84B
:100EF000D4A0CAF834E0DCF82CE01EF4804FFAD11C
:100F0000DFF8C0E0CEF834002E48D0F82CE01EF414
:100F1000804FF9D1DDF810E04263734409930A9BD6
:100F20000598069ADDF81CC0013B0A939DF82C3009
:100F3000C31A8DF82C309DF82D30D31A8DF82D3032
:100F40009DF82E30C3EB0C038DF82E30013180E775
:100F5000FFF7B0FA1B4BDA6A12F4704F1946F9D159
:100F6000CA6A184B002AFBDADA6AA06942F010421A
:100F7000DA624FF4A273C8F80030626A3A603360F4
:100F8000236B2B6010B103685B6898470D48E269DA
:100F9000C368216A934202D103698B420ED0006874
:100FA000084B440402D5DA60196107E040F480443C
:100FB00044F001041C60DA60196118600FB0BDE8EC
:100FC000F08F00BF00C0024008C0044018B00440C9
:100FD00014B0044004C0044038B50D4D0D4C2846F3
:100FE00003F032FE28460C4D0C4922460BF0A2FAC3
:100FF0002846FFF7DDFA0A49224628460BF09AFAFE
:10100000084B094A196811601A68084B1A6038BD04
:10101000349FFF1F6087FF1FA88DFF1F294C000012
:101020002505000014ADFF1F309FFF1FA08DFF1F7F
:1010300010B56FF00904C46290F820400A340463CC
:10104000047B84B90376029BC3619DF80C3080F861
:1010500020309DF8103080F82130059B4362012339
:1010600001614261037310BD014B0360704700BF13
:10107000E0D3000010B5034B0360044605F056FCB6
:10108000204610BDE0D300002DE9F04F036902793E
:1010900093F85A6085B00446322EA8BF322622B19A
:1010A00090F82120C262013202635B6EE76A226B14
:1010B000FF1A03EB0208002594F820309D424BDA1A
:1010C0000020FA2105F081F994F821309D4223692E
:1010D00005DCE26A95420EDCAF4205DB0BE0226BD9
:1010E000954208DBA84506DD626A05EB450103F180
:1010F0005B0011442CE093F868206AB9E26A9542DB
:1011000003DD196E0A44954208DD226B954203DA2D
:10111000196E521A954201DA02281BDC626A93F8B2
:1011200059B093F85AA005EB45099144314693F81C
:1011300058200192002005F048F9019A8DF80C2002
:10114000C0EB0A008DF80E008DF80DB003A84946DB
:1011500004F0CBFB0135AFE7E16A226B002901DA2D
:101160009A4205DC23691B6EC91A1344E1622363AA
:1011700005B0BDE8F08FFFFF054A138803EB43205D
:1011800003EB800000F55850193080B21080704792
:10119000348CFF1F014B0360704700BFE0D3000099
:1011A00010B5034B0360044605F0C0FB204610BD9C
:1011B000E0D3000038B5057B04466DBB0376049B85
:1011C000C3619DF8143080F820309DF8183080F805
:1011D0002130079B436242610161FFF7CDFF0AF0B6
:1011E000E7FAC4E90C01FFF7C7FF0AF0E1FAC4E926
:1011F0000E01FFF7C1FF0AF0DBFA84F84850C4E99A
:101200001001FFF7B9FF41F224335843030C643354
:101210009BB223650123237338BDFFFFFFFFFFFF50
:101220002DE9F04F8C4B064618683379B06287B0D1
:1012300003B1F0623269F16AD2F880300B4498420F
:101240002BD896F84830203386F8483092F87F3013
:10125000D2F8802003EB5303FF2BA8BFFF2300939A
:101260000A44FF2305F0BBF80024C5B296F82030ED
:101270009C4280F2E680736A96F848208DF814202C
:1012800004EB4401FF2205A819448DF815208DF8C0
:101290001650013404F029FBE8E7326D736D1344F6
:1012A000984229D97065FFF767FF4FF4AF63584341
:1012B000030C6A4964339BB233650B8803EB43220A
:1012C00003EB820303F5585319339BB203EB43201E
:1012D00003EB132203EB800303F55853D2B2193307
:1012E0009BB202EB420212120B8003EB132301327A
:1012F0001B0658BF5242F2643569F46C95F88400BD
:1013000060430AF065FA02460B46D6E90E010AF080
:1013100013F9C6E90E0195F8840060430AF058FA03
:1013200002460B46D6E910010AF006F9C6E910019B
:101330004FF0000996F82030994580F28280D6E976
:101340000C0141A3D3E900230AF0F6F804460D4648
:101350001420C6E90C4500FB09F00AF039FAD6E979
:101360000E230AF0E9F80AF05BFD1FFA80F80A2064
:1013700000FB09F00AF02CFAD6E910230AF0DCF899
:101380000AF04EFD294687B220460AF049FD39464B
:1013900082B2404604F0AAFD336993F8863053B117
:1013A00001230093FF224FF0FF33002105F017F8CF
:1013B0000AF00EFA0AE00AF0FBF90022284B0AF0C4
:1013C000B9F800224FF07E530AF068FA3769736A61
:1013D00097F87DB0044609EB490A97F87C009A44D7
:1013E0000D460AF0F5F9CDE9020197F885000AF0FB
:1013F000DFF902460B46204629460AF04FFA02461C
:101400000B46DDE902010AF097F80AF009FD10A386
:10141000D3E900238DF81400294620468DF815B035
:101420000AF03CFA00220E4B0AF086F80AF0F8FCAB
:1014300051468DF8160005A804F057FA09F1010984
:1014400078E707B0BDE8F08F000000E04D62403F54
:101450000000000000C05F4014ADFF1F348CFF1F70
:1014600000006040AFF30080014B0360704700BF95
:10147000E0D3000010B5034B0360044605F056FAB4
:10148000204610BDE0D300002DE9F04F064687B09E
:1014900090F821000AF0EEFDB16A04460AF03EFE23
:1014A0000546294620460AF02FFD0AF0FDFF214699
:1014B000804628460AF02AFD0AF0F6FF824BF26CBD
:1014C0001B6802F5C8729342814613D97F4AF364C0
:1014D000138803EB432103EB810303F558531933BE
:1014E0009BB2138003EB13231B0654BF4FF0FF3353
:1014F0000123B364B06C40000AF06AF904460D465B
:101500002246D6E90E012B460AF016F82246C6E915
:101510000E012B46D6E910010AF00EF8C6E91001BB
:101520004FF0000A574696F820309F4280F2C5805F
:1015300096F821203069974202DC474503DB89E0B9
:101540004F4540F38780036D002B7ADDD6E90C010F
:101550005BA3D3E9002309F0EFFF4FF0140B04461F
:101560000D46C6E90C450BFB07F00AF031F9D6E948
:101570000E2309F0E1FF0AF053FC1FFA80FC0A2059
:101580007843CDF808C00AF023F9D6E9102309F012
:10159000D3FF0AF045FC294683B2204603930AF0A4
:1015A0003FFCDDF808C0039B82B21946604604F098
:1015B0009DFC33691B6D0093FF220023594604F004
:1015C0000EFF336993F84020012AC4B205D1716A35
:1015D00096F8202001EB0A0B08E0022A24D196F8A5
:1015E0002120974207DA716A01EB0A0BFF2500956B
:1015F000384600210CE05CDD736A03EB0A0B96F8B9
:101600002030FF25D81B9A1A009501380021013A95
:101610000B4604F0E4FE8DF815508DF814008DF89B
:10162000164005A8594642E093F8422093F841300D
:10163000716A8DF814308DF815208DF8164005A8C4
:1016400034E0716A01EB0A02002301F80A3053709A
:1016500093702EE090F84040716A012C07D1FF246E
:1016600001EB0A050094384600211A4611E0022CCD
:101670001BD1974201EB0A0504DCFF240094384695
:10168000002106E0D81B9A1AFF240094013800219B
:10169000013A0B4604F0A3FE8DF815408DF81400B6
:1016A0008DF8164005A8294601E04130514404F068
:1016B0001CF901370AF1030A35E707B0BDE8F08FDE
:1016C000000000E04D62403F14ADFF1F348CFF1F4F
:1016D00070B50446007B00283CD12376049BE3616F
:1016E0009DF8143084F820301B4E9DF8183084F893
:1016F0002130079B63623388626103EB432503EB70
:10170000850505F558551935ADB2284621610AF011
:101710004FF805EB452305EB830505F558551935BD
:10172000ADB2C4E90C0128460AF042F805EB4523A6
:1017300005EB830505F558551935C4E90E01A8B226
:1017400030800AF035F8054BC4E910011B68E364EA
:101750000123237370BD00BF348CFF1F14ADFF1F26
:10176000074A138803EB432003EB800000F5585031
:10177000193080B2108000EB1020C0B2704700BF5B
:10178000348CFF1F10B5047B84B90376029BC361C0
:101790009DF80C3080F820309DF8103080F8213012
:1017A000059B4362012301614261037310BDFFFF8A
:1017B000014B0360704700BFE0D3000010B5034B3E
:1017C0000360044605F0B2F8204610BDE0D30000E7
:1017D00002EB4203003218BF012202EB9302D2B2A5
:1017E00002F03F0311064FEA830303D5FF22027084
:1017F000427008E002F0400202F0FF012AB1FF222D
:1018000043700270002383707047037041708170D1
:1018100070472DE9F3410446054694F820302A1B11
:101820009A4205F1010513DA626B95F83B600A27CD
:101830007A43B2FBF3F39F1CFFF792FFFFB210FB5A
:1018400007F7A6EB272626EAE67685F83B60E4E76D
:1018500094F82120033B93420DDD013BE11891F800
:101860003B5091F83C0000EB4500032590FBF5F060
:1018700081F83D00EFE723460021D01E814203F1AD
:1018800001030CDA93F83D5093F83C0000EB45005F
:10189000032590FBF5F0013183F83B00EDE7A16AE9
:1018A000E36ACB1AC72B09D8002301330D2B3ED096
:1018B000A1181944E62081F83500F6E7FFF750FF3C
:1018C000A36B984233D294F82150FFF749FF00B23E
:1018D00000EB400005EBE01694F82150FFF740FFC5
:1018E000F6B22644063D00B200EB4000EDB296F899
:1018F0003C7005EBE015FFF733FF00B200EB400052
:10190000C010EDB260383B4683FA50F3254486F8A8
:101910003C3095F83C60FFF723FF00B200EB40003D
:10192000C0106038334683FA50F385F83C30002508
:1019300094F820309D4218DA6319D4F8248093F883
:101940003C2005EB450701A82146FFF741FF08EBC6
:1019500007069DF8043008F807309DF805307370CD
:101960009DF80630B3700135E2E702B0BDE8F081C2
:10197000084B02791B68836202B1C3620269D2F824
:101980008810026B0A44934202D30363FFF741BFFE
:10199000704700BF14ADFF1F10B5047B84B90376F8
:1019A000029BC3619DF80C3080F820309DF8103008
:1019B00080F82130059B436201230161426103737A
:1019C00010BDFFFF014B0360704700BFE0D3000074
:1019D00010B5034B0360044604F0A8FF204610BD79
:1019E000E0D30000FFFFFFFF2DE9F041804688B003
:1019F000007E01F03FFAD8F81C0002A903F00DFEAA
:101A000098F82830D8F82460022B09D1DDE9064582
:101A100000222046294600230AF0D0F980B921E0AF
:101A200008AA02EBC30353E90645002220462946D3
:101A300000230AF0C3F918B9204605F1004101E07E
:101A4000204629460022B64B09F028FF0AF0C0F9CB
:101A5000D8F81030FF2293F8553000920021C022B0
:101A600004F0BDFC307098F82930D8F82460022BBF
:101A700008D1DDE90601002200230AF09FF918B31E
:101A800098F8283008AA02EBC30353E90645002260
:101A90002046294600230AF091F918B9204605F19D
:101AA000004101E02046294600229D4B09F0F6FE48
:101AB0000AF08EF9D8F81030FF2293F855300092D2
:101AC0000021C02204F08BFC707098F82A30D8F8FE
:101AD0002460022B09D1DDE9064500222046294673
:101AE00000230AF06BF980B921E008AA02EBC303D6
:101AF00053E9064500222046294600230AF05EF9F4
:101B000018B9204605F1004101E02046294600228F
:101B1000834B09F0C3FE0AF05BF9D8F81030FF22BE
:101B200093F8553000920021C02204F058FCB070A8
:101B3000D8F8103093F85430002B00F08280DDE9A3
:101B4000026700223046394600230AF037F918B9F7
:101B5000304607F1004101E0304639466CA3D3E935
:101B600000230AF02BF990B198F834307BB198F843
:101B70002830002B40F0AB80022288F82A3088F809
:101B80002820012388F82930002388F83430DDE943
:101B9000044500222046294600230AF00FF918B90F
:101BA000204605F1004101E02046294600225D4B18
:101BB0000AF004F998B198F8353083B198F82820E4
:101BC000012A4FF0000340F09780022188F8281086
:101BD00088F82A3088F82920002388F835303046E4
:101BE0003946002200230AF0E9F818B9304607F117
:101BF000004101E03046394647A3D3E900230AF00B
:101C0000BFF828B1D8F82C30B3F5167F80F0998052
:101C100020462946002200230AF0D0F818B92046B1
:101C200005F1004101E0204629463BA3D3E900230A
:101C30000AF0A6F828B1D8F83030B3F5167F80F056
:101C400088800324012598F820309D4280F29A80F4
:101C5000D8F824301B780A2B40F28380002014210E
:101C600004F0B3FB00287CD1D8F824600A2137782F
:101C700004F0ABFB381A3055D8F824305B780A2BC7
:101C800074D90020142104F0A0FB00286ED1D8F8EC
:101C900024300A211E195F7804F097FB381A7070FF
:101CA000D8F824309B780A2B66D90020142104F040
:101CB0008CFB002860D1D8F824300A211E199F78A7
:101CC00004F083FB381AB07001350334BBE798F891
:101CD000293001222BB988F8283088F82A200223DD
:101CE00050E798F82A30002B7FF44EAF88F8282070
:101CF000022288F82A2045E798F82920012A13D1E2
:101D000088F8283088F82A20022317E0AFF30080F3
:101D1000000000C0CCCCEC3F000000403333D33F88
:101D20000000594000006E4098F82A20012A7FF4F4
:101D300053AF88F82820022288F82A2088F8293012
:101D40004AE7A3F51673C8F82C30012388F834301D
:101D50005EE7A3F51673C8F83030012388F83530F4
:101D60006FE7D8F824301A781A5585E7D8F8243068
:101D70005A7823445A7093E7D8F824309A78234449
:101D80009A70A1E708B0BDE8F08100BFAFF3008012
:101D9000014B0360704700BFE0D3000010B5034B58
:101DA0000360044604F0C2FD204610BDE0D30000ED
:101DB000414B73B51D68036993F82060044616B162
:101DC000036BC36217E0C26A8168866301EB42015C
:101DD0008D420AD38560D969986904F0F6FA012327
:101DE000E06284F83C60A36305E08A1A954224BF50
:101DF000012380F83C30A36B0BB3236993F82120B7
:101E0000012A14D009D3022A19D100204FF480717D
:101E100004F0DBFA84F8280011E01A7D84F8282009
:101E20005A7D9B7D84F8292084F82A3007E094F8B5
:101E30002830FF2B0CBF0023033384F8283023699C
:101E400093F820300BB1606B09E094F83C30A06847
:101E500023B1E36A401B00EB430000E0281A64232F
:101E6000E26A00930021192304F0B9FA0AF002F99A
:101E700012490AF007FA054601460AF04FF92946C9
:101E80000AF04CF94FF087410AF048F90AF032FBAA
:101E9000002584F82A0094F820309D4209DA636A0C
:101EA00005EB450104F12800194403F01EFD01353E
:101EB000F1E702B070BD00BF14ADFF1F0000C842C3
:101EC00010B50446007B00BB2376029BE3619DF8BE
:101ED0000C3084F820309DF8103084F82130059BB8
:101EE0002161626163620B7D84F828304B7D84F848
:101EF00029308B7D84F82A3084F83C008869C969D0
:101F000004F063FA0123E062237310BD83639DF83C
:101F100000300163426380F83C307047014B03603E
:101F2000704700BFE0D3000010B5034B03600446C8
:101F300004F0FCFC204610BDE0D30000FFFFFFFFD3
:101F40002DE9F0419DF81C509846002380F8303070
:101F5000044628460E4617460AF088F801461A48F5
:101F60000AF090F9237B606333BB069B174AE36159
:101F70009DF8203084F82130099B63621388266124
:101F800003EB432003EB800000F55850193080B27A
:101F9000108000EB1020676184F8188084F82050CE
:101FA000C0B209F005FC06A3D3E9002309F0A0FDA7
:101FB000C4E90E0101232373BDE8F081AFF3008073
:101FC0000000000000E7D84000007F43348CFF1F72
:101FD0002DE9F347C76AD0F8288007F57A7398454A
:101FE00082460E4645D94EA3D3E90023D0E90E011F
:101FF00009F0A2FA04460D460420CAE90E4596FBF4
:10200000F0F009F0E5FB07F0EBFD8046894620463D
:10201000294607F019FD424606460F464B46204624
:10202000294609F089FACDE9004532463B4601F0E0
:10203000B7F83DA3D3E9002309F030FC00223E4B62
:1020400009F07AFA09F0C4FEDAF81030044618688C
:1020500009F0BEFB36A3D3E9002309F01FFC09F009
:10206000B7FE00210090FF2220461E2304F0B7F99E
:1020700050E090F82140A14209DA084609F0FAFF41
:102080000546204609F0F2FF014628460BE090F88D
:102090002050681E401A09F0EDFF0646281B09F083
:1020A000E9FF014630460AF0EDF824490AF036F817
:1020B000DAF8103093F86D500446284609F0DAFF3C
:1020C000214606460AF0E6F918B1284609F0CEFF87
:1020D0000446C7EB080009F0C9FF19490AF0D2F815
:1020E00031460746204609F00FFF014638460AF000
:1020F00015F80146204609F007FF04462146304600
:102100000AF0C8F918B1284609F0B0FF0446204685
:102110000AF0F0F9C0B202B0BDE8F087AFF300807A
:10212000000000C07493583F0000000000C05F40F2
:10213000000000403333E33F0000604000007F4375
:1021400000007A44AFF300802DE9FF4105460024EA
:1021500095F8202094421BDA6B6A002104EB4407B7
:10216000FF261F4420460B46009604F038F921460E
:1021700080462846FFF72CFF39468DF80E0003A84D
:102180008DF80C808DF80D60013403F0AEFBDFE7B5
:1021900004B0BDE8F0812DE9F043054685B0002686
:1021A00095F82140A6421CDA6B6A002106EB46082E
:1021B000FF272246984430460B46009704F00FF95B
:1021C000314604462846FFF703FF41468DF80E00CE
:1021D00003A88DF80C408DF80D70013603F085FBD7
:1021E000DEE704EB440695F820309C4220DA696A69
:1021F00095F8212001EB0608181B00219A1AFF27E9
:102200000B46013A0097013804F0E9F8214681466F
:102210002846FFF7DDFE41468DF80E0003A88DF835
:102220000C908DF80D70013403F05FFB0336DAE794
:1022300005B0BDE8F083FFFF0269836A2DE9F34131
:10224000116F82680A44934204463ED98360D0E904
:102250000E011FA3D3E9002309F06EF9C4E90E01B2
:10226000002594F8203094F830009D422ADA636A01
:1022700005EB45061E4409F0FDFE0746284609F019
:10228000F9FE15498046606B09F048FF014640465B
:1022900009F044FF0146384609F038FE0AF02AF9F1
:1022A0002946C7B22046FFF793FEFF238DF80600AC
:1022B000314601A88DF804708DF80530013503F022
:1022C00014FBCEE7013884F8300002B0BDE8F0819D
:1022D000000000E04D62503F9A99193FAFF3008033
:1022E0002DE9F7430269836A116F82680A449342B9
:1022F000044666D98360D0E90E0133A3D3E90023F5
:1023000009F01AF9C4E90E01002694F82150AE42F2
:1023100026DA636A94F8300006EB46051D4409F09E
:10232000A9FE0746304609F0A5FE616B09F0F6FEEE
:102330000146384609F0EAFD0AF0DCF83146C7B23A
:102340002046FFF745FEFF238DF80600294601A829
:102350008DF804708DF80530013603F0C6FAD4E725
:1023600005EB450694F8207094F83000BD4225DA5C
:10237000616A01EB060809F07DFE8146781B013891
:1023800009F078FE616B09F0C9FE0146484609F084
:10239000BDFD0AF0AFF82946C7B22046FFF718FE88
:1023A000FF238DF80600414601A88DF804708DF8D2
:1023B0000530013503F099FA0336D3E7013084F88C
:1023C000300003B0BDE8F083000000E04D62503FF4
:1023D00070B50669044696F86D0009F0E9F9284BD6
:1023E000002209F05BFA09F01BFD84F84000254B40
:1023F00096F86C601D68A562012E1DD8636C32339F
:102400009D4208D96564D4E90E011BA3D3E90023DA
:1024100009F092F80EE094F8200009F027FE1A491E
:1024200009F07CFE09F0E6F902460B46D4E90E01FC
:1024300009F080F8C4E90E01237903B1E562032EA7
:1024400017D8DFE806F002070C112046BDE87040FF
:10245000FFF77ABE2046BDE87040FFF79CBE2046DD
:10246000BDE87040FFF7E8BE2046BDE87040FFF7CA
:1024700037BF70BDAFF30080000000E04D62503FF9
:102480000000E03F14ADFF1F6F12033AAFF300806E
:10249000014B0360704700BFE0D3000010B5034B51
:1024A0000360044604F042FA204610BDE0D3000069
:1024B00070B5042680F828600E4E9DF814503668DA
:1024C0008660067B9DF818409EB90376049BC36125
:1024D000079B4362EB074CBF231F631F80F821401B
:1024E0000363043401230161426180F82050446396
:1024F000037370BD14ADFF1F90F8283080F82810CA
:102500008B421CBFC36A836070472DE9F3470546C1
:10251000002495F820309C4237DA0020642103F033
:1025200054FF95F821305A1C944209DC013B9C422F
:1025300006DB28696B6A04EB44012B30194420E068
:1025400008BB6B6A04EB44071F442B69DE6B1968F8
:1025500093F82D8093F82BA093F82C90304603F03D
:1025600034FF0223C0EB080090FBF3F8B045A8BF8E
:1025700046468DF804A08DF805908DF8066001A8F8
:10258000394603F0B2F90134C3E728460421FFF7C6
:10259000B3FF02B0BDE8F08737B50546002495F8D3
:1025A00020309C4220DA2B6B61009C4221446B6AF4
:1025B00002DB6A6B944205DD581800225A544270BF
:1025C00082700FE02A6992F8290092F828208DF88D
:1025D00004208DF80500FF2201A819448DF806207B
:1025E00003F083F90134DAE728460121FFF784FF7D
:1025F00003B030BD2DE9F743044600250027266BC4
:10260000B54243DA284609F035FD064694F8210024
:1026100009F02CFD0146304609F034FE60490646BB
:1026200009F07CFD4FF08141074609F033FF10B1FE
:102630004FF0814000E0384609F036FF01460020A7
:1026400003F0C3FE09F016FD554909F01BFE0746CD
:102650003946304609F058FC636A524905EB450695
:102660001E44236993F82C2093F82B308DF8043006
:102670008DF8052009F052FD09F03CFF31468DF838
:10268000060001A803F031F90135B8E72069A36815
:10269000026B1A44E36A934234BF00F1280900F147
:1026A0002B0906EB4608656BAE4208DC616A4846BA
:1026B000414403F01AF9013608F10308F3E7013544
:1026C00005EB450694F82000854249DA0138401BA5
:1026D00009F0D0FC804694F8210009F0C7FC0146BF
:1026E000404609F0CFFD1E218046002003F06DFE1C
:1026F000B8B92B49404609F011FD2B49074609F0AE
:10270000C9FE08B1284800E0384609F0CDFE014670
:10271000002003F05AFE09F0ADFC214909F0B2FD9A
:1027200007464046394609F0EFFB616A236901EB31
:10273000060893F82C2093F82B308DF804304FF0D6
:1027400087418DF8052009F0E9FC09F0D3FE4146E8
:102750008DF8060001A803F0C8F801350336B1E78B
:1027600023695A6BA3681A44E36A934211D3256B19
:1027700005EB4506636B9D4208DC2069616A2B30DE
:10278000314403F0B2F801350336F3E72046032164
:1027900001E020460221FFF7AFFE03B0BDE8F08361
:1027A0000000C84200007F430000A041F0B50022B5
:1027B000012490F8203001699A422DDA02EB42059B
:1027C000466A91F83810775DC1EB070CBCF1000F39
:1027D00006EB05030DDC93F801C0C1EB0C0CBCF15A
:1027E000000F06DC93F802C0C1EB0C0CBCF1000F2B
:1027F00010DDC943C9B217FB01F73F1277555D7869
:1028000015FB01F52D125D709D7815FB01F1091284
:10281000997001340132CCE7CA6B002A06DD03222D
:10282000B3FBF2F39C4202DD032101E0FCD0042162
:10283000BDE8F040FFF760BE90F82830013B032B65
:1028400009D8DFE803F002020406FFF7D3BEFFF762
:10285000ADBFFFF75ABE7047044A03791268C262DF
:102860000BB1FFF799BEFFF7E7BF00BF14ADFF1F25
:10287000014B0360704700BFE0D3000010B5034B6D
:102880000360044604F052F8204610BDE0D3000077
:102890002DE9F0410B7886B006460F4623BB406A0F
:1028A00002EB420200EB0208706B08F091FF044655
:1028B000B06B0D4608F08CFF336993F877208DF8E4
:1028C000102093F878208DF8112093F879208DF856
:1028D000122093F874208DF8142093F875208DF849
:1028E000152093F876302EE0591E032905D800698B
:1028F000716A02EB420277303AE0052B31D1406A2F
:1029000002EB420200EB0208706B08F061FF044624
:10291000B06B0D4608F05CFF336993F874208DF8B6
:10292000102093F875208DF8112093F876208DF8FB
:10293000122093F877208DF8142093F8782093F8DC
:1029400079308DF815208DF8163004AB029305AB65
:10295000CDE900010393404622462B4600F092FB4E
:1029600009E0062B07D10069716A02EB420274305C
:10297000114402F0BAFF3B780133DBB2072B28BFCA
:1029800000233B7006B0BDE8F08137B5057B0446F7
:1029900095BB0376069BC3619DF81C3080F8203000
:1029A0009DF8203080F82130099B436290F8303048
:1029B000016142618DF8073094F821309D4207DAB9
:1029C0002A4620460DF10701FFF762FF0135F3E7C4
:1029D00094F8303094F820508DF8073094F8213076
:1029E000013D9D4206DB20460DF107012A46FFF717
:1029F0004FFFF3E70123237303B030BD264B37B5F8
:102A000002791B688362044612B1C36203238363A5
:102A1000A36B41F2873293423CDC94F830308DF85E
:102A20000730002594F821309D4207DA2A462046D7
:102A30000DF10701FFF72CFF0135F3E794F8303073
:102A400094F820508DF8073094F82130013D9D42D4
:102A500006DB20460DF107012A46FFF719FFF3E7D1
:102A6000E26AA36A02F5C872934203D3E362A36BDE
:102A70000133A363636BA26B01339342636309DB8E
:102A80000023636394F830300BB9062300E0013B68
:102A900084F8303003B030BD14ADFF1FF8B500230B
:102AA0004FF44A7404FB010494F8C054AB420CDAAE
:102AB000D4F8BC64177803EB43057419775555783F
:102AC00065709578A5700133EAE74FF4AF7004F0B4
:102AD00047F90348BDE8F840017802F03BBE00BF6B
:102AE00038ACFF1F70B500F58A56044680F8B41460
:102AF00000F597651836284694F8B41405F54A751C
:102B000000F0CEFEB542F6D194F8B434032B04D1D4
:102B10002046BDE8704002F015BB70BD10B50446FC
:102B200000F5976000F0ACFE04F5FC6000F0A8FE34
:102B300004F6083000F0A4FE04F56360BDE8104020
:102B400000F09EBE2DE9F04F594D89B004468946EC
:102B500028465849FDF706FD4FF4B071284603F0AA
:102B6000FEFB284603F0A0FB04F58A5794F8B43422
:102B7000514A18378DE888004FF04B0B4FF0230A6D
:102B800004F19003CDF808B0CDF80CA0049304F53F
:102B9000976001232146002600F08EFC2846474915
:102BA000FDF7EDFC4FF0FF082046314607AA8DF8EF
:102BB0001E808DF81C608DF81D60FFF76FFF94F884
:102BC000B434CDF80CA08DE8880804F27113049396
:102BD00004F5FC6002232146394A00F06DFC2846CA
:102BE0003849FDF7CCFC204607AA01218DF81C804E
:102BF0008DF81D808DF81E60FFF750FF94F8B434F7
:102C0000314A8DE888004FF0640B4FF0320A04F22D
:102C10005223049304F6083004232146CDF808B06B
:102C2000CDF80CA000F048FC28462849FDF7A7FC89
:102C30004FF08008204607AA02218DF81C808DF8ED
:102C40001D608DF81E80FFF729FF94F8B434204AE8
:102C5000CDF80CA08DE8880804F27E33049304F5C7
:102C600063600823214600F027FC28461949FDF738
:102C700086FC07AA032120468DF81C608DF81D8074
:102C80008DF81E60FFF70AFFFA2004F069F820466D
:102C9000FFF744FF1048017802F05CFD84F8B4941B
:102CA00020464946FFF71EFF09B0BDE8F08F00BF80
:102CB0008CAEFF1F38D500004ED500004AD500006D
:102CC0005BD5000057D5000069D5000065D5000030
:102CD00076D5000072D5000038ACFF1F2DE9F04F0B
:102CE0004B4B1E6890F8B434032B85B0044603D1D7
:102CF00002F064FA834601E04FF0000B4FF0000849
:102D000004F58A5904F5976509F118094746C24642
:102D100094F8B424012A04D0032A34D1C5F8B0B001
:102D200031E094F82030002B2DD004F58C53606AEC
:102D3000196800EB410086420CD3A069E169039257
:102D4000029303F042FB029B039A1860002766621D
:102D5000924603E0411A8E4228BF012794F82020B2
:102D60004AB1626A2FB11968C6EB020808EB410844
:102D700001E0C2EB06080097196805F10C00424615
:102D80005346FFF7C3F8284605F54A7500F05EFD87
:102D90004D45BDD1224640F25D1392F8A71449B9C2
:102DA00092F8A81431B992F8A91419B9013BA2F10B
:102DB0000302F2D103EB43039033E018E15C427865
:102DC00080788A422CBF13460B46834238BF0346A5
:102DD0004FF47F4595FBF3F359435A4343430D4862
:102DE000C1F3072184F8AA1484F8AD140178C2F362
:102DF0000722C3F3072384F8AB2484F8AC3484F8A7
:102E0000AE2484F8AF3405B0BDE8F04F02F0A2BCA8
:102E100014ADFF1F38ACFF1F30B505781C1C18BF60
:102E2000012425B115FB03F504EB1525EDB2057062
:102E3000087820B110FB03F004EB1020C0B208703A
:102E4000117821B111FB03F104EB1121C9B211700A
:102E500030BD38B5044608460D4609F09AFC236893
:102E600002465B6820462946984738BD0A2200235F
:102E700003F03DBA37B50A4C05467421204601F0EF
:102E80002BF92368E9B21B6820469847002300937A
:102E9000627B21692046012301F087FB03B030BD2E
:102EA000E09FFF1F10B5044602F0ECFA2046022115
:102EB00002F0CAFB20464B2102F00EFB20464B21BC
:102EC00002F016FB20460A2102F01EFB20460121DB
:102ED00002F0FAFB2046012102F0FBFB2046012113
:102EE00002F0FCFB2046072102F01AFB20462D21B0
:102EF000BDE8104002F020BBF8B507460C460E486E
:102F0000394616461D46FFF7B1FF0C490A48FFF740
:102F1000A0FF21460848FFF7A9FF08490648FFF728
:102F200098FF05483146FFF7A1FF25B10248BDE8EB
:102F3000F84003F0B9B9F8BD8CAEFF1F80D5000092
:102F400002460B46007851789278FFF7D5BFFFFF15
:102F50002DE9F74F19468046144610461D460022BB
:102F6000002308F017FFDDE90C67DDF83890DDF885
:102F70003CB0824650B199F8003088F8003099F89A
:102F8000013088F8013099F8023010E029463246C5
:102F90003B46204608F008FF9BF800109BF80120F4
:102FA0009BF8023030B188F8001088F8012088F8CA
:102FB000023062E08DF80010304639468DF801206D
:102FC0008DF8023008F04CFF29468346204608F071
:102FD00047FF594609F056F9294909F09FF809F0C9
:102FE00089FA0DF10101C3B20DF102026846FFF743
:102FF00013FF99F800308DF8043099F801308DF8FE
:10300000053099F802308DF8063022462B463046BE
:10301000394608F08FFA08F023FF594609F032F9D3
:10302000174909F07BF809F065FA0DF10602C3B201
:103030000DF1050101A8FFF7EFFE9DF8043052469F
:1030400082FA53F29DF80510534683FA51F39DF826
:1030500006108AFA51FA9DF8001082FA51F288F8A7
:1030600000209DF8012083FA52F388F801309DF882
:1030700002308AFA53FA88F802A003B0BDE8F08F54
:1030800000007F432DE9F04188B0804604A91098E4
:103090001F46164602F029FC119805A902F025FCEE
:1030A0009DF810308DF818309DF811308DF81930DA
:1030B0009DF812308DF81A309DF814308DF81C30C0
:1030C0009DF815308DF81D30DDE90E459DF8163060
:1030D0008DF81E3006AB029307AB0393CDE9004594
:1030E000404632463B46FFF733FF08B0BDE8F0816B
:1030F000F8B5024604460D460B4608F0CFFB2246C3
:103100002B4608F0CBFB002206460F4620462946F8
:103110000B4B08F0C3FB00220A4B08F00BFA0246E7
:103120000B462046294608F0B9FB0022064B08F062
:1031300003FA02460B463046394608F0AFFBF8BDAD
:103140000000184000002E400000244000F00F0155
:10315000F8B507298646DDE9064504DC032916464D
:103160001F460BDD01E026462F460EF00D010C290F
:1031700002D0DDE9084501E014461D461EF0010FAE
:1031800014BF07F1004139461EF0020F30462246B7
:1031900014BF05F100432B4608F0CEF9F8BDFFFF40
:1031A0002DE9F04F9BB014461D468046894606F037
:1031B00087FC0691079008F00BFE29465FFA80FC19
:1031C0002046CDF814C006F07BFCCDE9080108F0DC
:1031D000FFFD5FFA80FBDDE9240106F071FC0F467C
:1031E000064608F0F5FD079A069B5FFA80FA494605
:1031F000404608F09FF9DDE90823CDE90C0120469F
:10320000294608F097F932463B46CDE90801DDE949
:10321000240108F08FF904460D46DDE90C01FFF7A3
:1032200067FFCDE90A01DDE90801FFF761FFCDE99C
:10323000140120462946FFF75BFFDFF86082DDF8C6
:1032400014C018F80C305B44DAB20CF1010C0133F5
:103250005FFA8CFCDBB218F8022018F8037018F83B
:103260000C309B445FFA8BF3524418F803601792BA
:10327000D3B2CDE9180118F80300DDE908230BF1FA
:10328000010BCDE90245CDE900235FFA8BFBDDE9B7
:103290000C23FFF75BFF18F80B907F4B8B465744CE
:1032A0005644D14400228246DDE90C0108F042F97F
:1032B000F3B2CDE9100118F80300DDE90823CDE9E8
:1032C0000245CDE90023DDE91023FFF73FFF524619
:1032D0005B4608F02FF902460B46DDE90A0108F0CB
:1032E000DDFA02460B465046594608F025F9002201
:1032F000CDE90E01684BDDE9080108F01BF9FBB2CE
:10330000CDE9120118F80300DDE91223CDE90245E9
:10331000CDE90023DDE90C23FFF718FF5FFA89F3FD
:10332000824618F80300DDE912238B46CDE90245F9
:10333000CDE90023DDE91023FFF708FF52465B4685
:1033400008F0F8F802460B46DDE90A0108F0A6FA93
:1033500002460B465046594608F0EEF8DDE90E23CA
:1033600008F0E8F802460B46DDE9140108F096FA89
:1033700002460B46DDE90E0108F0DEF80022CDE939
:103380000E01454B2046294608F0D4F8179B5C1CDB
:10339000DDE90823E4B282468B4618F80400CDE943
:1033A0000023CDE902ABDDE90C23FFF7CFFE0136A8
:1033B000DDE90823F6B204460D4618F80600CDE90B
:1033C0000023CDE902ABDDE91023FFF7BFFE224663
:1033D0002B4608F0AFF802460B46DDE90A0108F07B
:1033E0005DFA02460B462046294608F0A5F801374B
:1033F000DDE91223FFB20446CDE9002318F80700E7
:10340000DDE90C23CDE902AB0D4609F10109FFF717
:103410009DFEDDE912235FFA89F906460F46CDE9E4
:10342000002318F80900DDE91023CDE902ABFFF70E
:103430008DFE32463B4608F07DF802460B46DDE93C
:103440000A0108F02BFA02460B463046394608F0CE
:1034500073F822462B4608F06DF802460B46DDE96C
:10346000140108F01BFA02460B462046294608F0D4
:1034700063F8DDE90E2308F05DF802460B46DDE94E
:10348000180108F00BFA02460B46DDE90E0108F0C0
:1034900053F81BB0BDE8F08F0000F03F83D500006B
:1034A00038B50A220023044602F021FF05462046D3
:1034B00002F0FAFE284438BD2DE9F04F87B00260D3
:1034C000149A4260119AC0F8D4229DF848200272E2
:1034D00006469DF84C2080F8D03280F8DC22C0F8F7
:1034E000CC12D8B2FFF7C6FCD6F8D402FFF7DAFC4C
:1034F00031684E48FDF736F84D494C48FDF73FF826
:103500004C494A48FDF72EF8317A4848FFF7C8FF82
:1035100049494648FDF726F800240025434896F817
:10352000DC12FFF7BDFFCDE900456427A046A946A0
:1035300005AAD6F8D4020DF112010DF1160302F01E
:1035400047F8BDF914C0BDF916B0BDF912300393A8
:10355000BCF1000FB8BFCCF1000CBBF1000FB8BF3D
:10356000CBF1000B1FFA8CFA1FFA8BFB1846ADF853
:1035700014A0ADF816B008F02BF902460B464046F1
:10358000494607F0D9FF0FFA8AFA80465046894625
:1035900008F01EF902460B46DDE9000107F0CCFFFA
:1035A0000FFA8BFBCDE90001584608F011F90B46E4
:1035B00002462946204607F0BFFFD6F8F032C6F88B
:1035C000F432039BC6F8F032D6F8F832C6F8FC3273
:1035D000013FD6F80033C6F8F8A204460D46C6F8F7
:1035E0000433C6F800B3A3D10022144B4046494629
:1035F00008F07EFA08F034FC0022C6F8E4020F4B13
:10360000DDE9000108F074FA08F02AFC0022C6F88F
:10361000E8020A4B2046294608F06AFA08F020FC26
:10362000C6F8EC0207B0BDE8F08F00BF8CAEFF1FFC
:1036300083D6000096D60000A8D6000000005940AE
:103640002DE9F04F0446DFF800A290F8D002DAF836
:10365000005087B0FFF70EFC0DF1160305AA0DF11F
:103660001201D4F8D40201F0B3FFBDF91480BDF902
:103670001670BDF912C0CDF800C0B8F1000FB8BF88
:10368000C8F10008002FB8BF7F4260461FFA88F8D3
:10369000BFB2ADF81480ADF8167008F0EBFCD4F8AA
:1036A000E4623146814608F02FFC634908F036FD9C
:1036B000314608F02BFC0FFA88F20646C4F8E40203
:1036C0001046019208F0D6FCD4F8E88241468346C1
:1036D00008F01AFC584908F021FD414608F016FC94
:1036E0003BB2C4F8E80280461846029308F0C2FCD8
:1036F000D4F8EC720390394608F006FC4E4908F005
:103700000DFD394608F002FCD4F8F012019ADDF8FC
:1037100000C0029BC4F8F412D4F8F812C4F8F822DE
:10372000D4F80023C4F8EC02C4F8F0C2C4F8FC12C8
:10373000C4F80423C4F800330746D4F8200308F083
:1037400099FC0146304608F0DFFB0146484608F088
:1037500083FE10B1012384F8243394F82433E3B1B9
:10376000D4F80823D4F8E03213449D4215D3D4F89A
:10377000140308F07FFC0146304608F0C7FB014601
:10378000484608F087FE50B1DAF80030C4F8E0325D
:10379000002384F82433012602E0002600E00646D8
:1037A00094F8243303B3D4F80C23D4F8E032134450
:1037B0009D4212D38EB9D4F8180308F05BFC014681
:1037C000404608F0A3FB0146584608F059FE20B1D8
:1037D000DAF80030C4F8E0320126D4F81023D4F827
:1037E000E03213449D420ED20EB314491448FCF744
:1037F000B9FE21681248FCF7B5FE11481149FCF7E3
:10380000BEFE012613E0002EEFD1D4F81C0308F011
:1038100031FC0146384608F079FB0146039808F070
:103820002FFE20B1DAF80030C4F8E032DDE7304690
:1038300007B0BDE8F08F00BFC337A23CB3D600008D
:103840008CAEFF1FBDD6000014ADFF1F38B590F839
:10385000C832023BDBB2072B04460AD8012202FA27
:1038600003F313F0F90F04D0D0F8D852FFF7E8FEB5
:103870002871D4F8D80210B10368DB68984738BDC6
:1038800030B50023027A934209DA456803EB43041A
:10389000291900222A5501334A708A70F2E730BD97
:1038A00030B5044685B080F8C812FFF7E9FF94F8F8
:1038B000C832092B29D8DFE803F0050C0F121518C0
:1038C0001B1E21240023C4F8D8322046FFF7D8FF5E
:1038D0001BE004F10C0316E004F14C0313E004F1C7
:1038E000880310E004F1D8030DE004F588730AE0C2
:1038F00004F5A47307E004F5C87304E004F5E87365
:1039000001E004F50A73C4F8D832D4F8D80288B1BB
:10391000D4F8D42201680092227A019294F8DC2231
:103920000292626803928D6894F8D032D4F8CC1277
:103930002268A84705B030BD0369D3F83801D3F831
:103940003431C01A704770470369D3F84422B2F586
:10395000817F09D8D3F84422501CC3F84402134491
:10396000012083F83C117047012303710020704748
:1039700030B50469D4F84432B3F5817F1DD8D4F84A
:103980004432D4F84452C3F5817301332C449A4233
:1039900004F59E7402D9012202711A460023934253
:1039A00003D0CD5CE5540133F9E70269D2F8441243
:1039B0001944C2F84412184630BD01230371002097
:1039C00030BDFFFF38B5094B0360036993F8482207
:1039D000022A044608D1D3F860522DB1284602F0DD
:1039E000E5FA284602F0A2FF204638BDC8D60000FE
:1039F000C3681A789207FCD502221A707047FFFF3D
:103A0000002210B502710273064A02604FF47A7404
:103A1000054A84604FF41A74417304FB012101616B
:103A200010BD00BFC8D600006487FF1FF8B5C3688B
:103A30001B789B0604460E4677D483688021197054
:103A4000C3681221197090F84932012B03D01AB9BA
:103A500080F8482200E01A46531E012B67D816B999
:103A60004FF0807103E0012E03D14FF00071314B14
:103A70001960022A55D1D4F8605245B9082002F0E5
:103A800053FF2946074602F03DFAC4F86072D4F8A5
:103A9000605265B12B79102B09D1284602F086FAC5
:103AA000284602F043FF0023C4F8603239E02B6857
:103AB00021489A8B998B92B242F008029A832A7914
:103AC0001E4B002E08BF184602F110011C4B43F894
:103AD00021004FEA62134FEA830303F1604303F5C9
:103AE00061434FF0010002F01F0200FA02F21A6077
:103AF0002B689A8B998B92B242F002029A832B79AF
:103B000003F1804303F504334FF0000214BF972103
:103B100096211A701970022384F8562284F84832CC
:103B2000F8BD012084F84802F8BD0020F8BD01204E
:103B3000F8BD00BF00E100E02D4B0000214B00006C
:103B40000082FF1F8C4B994210B5436804461BD17D
:103B50000D2A15D8DFE802F02628072C090B575943
:103B60005B0D0F611163552144E0192142E01321DF
:103B700040E006213EE005213CE00120187053E0C2
:103B8000002018700D224FE07C48814222D10C2A7F
:103B90001CD8DFE802F007090B0D0F111315173EB3
:103BA000194244002C2125E0242123E01E2121E09C
:103BB0004F211FE015211DE00F211BE00E2119E010
:103BC0000C2117E00A2115E0042113E000201870F1
:103BD0000C2229E06A48814229D10B2A21D8DFE84A
:103BE00002F006080C0E10121416181A1C1E2721BB
:103BF00000E05A211970012016E01C21FAE7852106
:103C0000F8E71421F6E74521F4E70D21F2E70B214F
:103C1000F0E70921EEE70321ECE70221EAE70021C2
:103C2000E8E7002018700B22A36904218EE05548B4
:103C3000814224D1092A1CD8DFE802F005070B0DC8
:103C40000F1113151719952100E055211970012046
:103C500012E08521FAE71521F8E74521F6E70C2166
:103C6000F4E70A21F2E70521F0E70221EEE700215F
:103C7000ECE7002018700922A369032166E042489E
:103C800081421FD1072A17D8DFE802F004060A0C88
:103C90000E1012141F2100E08521197001200EE082
:103CA0001421FAE74521F8E70B21F6E70521F4E7AF
:103CB0000221F2E70021F0E7002018700722A36933
:103CC000022143E03148814210D1052A0AD8DFE8B9
:103CD00002F00305071D21231D2118E0142116E021
:103CE000432114E00020187005221AE02848814280
:103CF0001AD1032A12D801A151F822F0DD3C0000AC
:103D00000D3D0000153D0000193D00000B2119700C
:103D1000012006E00321FAE70021F8E700201870EF
:103D20000322A369012111E01A48814210D122B176
:103D3000012A4FF0000101D003E00B21197001208E
:103D400002E0197000200122A369002119700FE020
:103D5000114881424FF00000187007D10AB90120C4
:103D600000E00020A36900221A7001E0A369187026
:103D700084F84C2210BD00BF00879303007E5603D9
:103D8000006CDC020051250200366E010024F400B4
:103D900000127A0000093D0080841E00F8B51C4620
:103DA0009DF8183005462BB1C0680078800601D513
:103DB0000020F8BD002C40F2032640F2646040F27F
:103DC000036708BF4FF4197608BF074685F84B42D2
:103DD00071BB012A14D173B1002C14BF0221002140
:103DE000122002F083FF002C4FF0130014BF0221B9
:103DF000002102F07BFF012385F84A32224B13E0B9
:103E000073B1002C14BF02210021112002F06EFFBB
:103E1000002C4FF0100014BF0221002102F066FFB9
:103E2000002385F84A32194B1E6043F8046C29E0E0
:103E3000012927D1042A13D15BB1002C14BF02241D
:103E400000241E20214602F051FF1D20214602F0D1
:103E50004DFF042385F84A320D4B1F605F6011E06F
:103E60005BB1002C14BF022400241F20214602F065
:103E70003DFF1A20214602F039FF032385F84A321C
:103E8000044BD1E70120F8BD04A004400CA004407D
:103E900000D004402CB00440F7B5044616469DF807
:103EA00020009DF82C700D4621B92A4A116841F076
:103EB000400105E0012904D1264A116841F0800142
:103EC0001160002284F84E2284F84962626936B992
:103ED0002023137023681E70E3691E7015E000280C
:103EE0000CBF202128211170216801D0834201D20A
:103EF0005A0000E04200D2B20A70E26920B1834267
:103F000034BF40005800C0B210700023294600930F
:103F10009DF824209DF828302046FFF73FFF94F8B5
:103F20004A32022B0CBF0C490C493A462046FFF797
:103F300009FE9DF8302020462946FFF777FD94F8CA
:103F40004922A3680AB9802200E0C0221A7003B097
:103F5000F0BD00BF3480044000D8B805006CDC021E
:103F600090F84A32042B2DE9F7430446894641D89C
:103F7000224AD55C224AD65C002E3BD0002D39D097
:103F800090F84B32002B14BF02210021304602F082
:103F9000ADFE2846012102F07BFE2846012102F0F9
:103FA000A5FE0B27304602F093FE014618B9013FEB
:103FB00017F0FF070CD1002184F84E12009194F8FD
:103FC0004A2294F84B3220464946FFF7E7FE11E0BB
:103FD00028464FF0A00802F05BFE4346013B7FF409
:103FE000FDAF0121284602F053FEB8F101087FF42D
:103FF000FCAFD7E703B0BDE8F08300BFE5D6000013
:10400000E0D600002DE9F041044616461F460D4655
:1040100002F088FEA3681A789206804602D5B42280
:104020001A7027E0002E45D002F07CFEC8EB00009D
:10403000B0423FD3A3681B789B060FD42046294685
:10404000FFF78EFFE3681B7803F0200303F0FF0205
:1040500023B9A36884F84922B0221A70A3681B7898
:1040600003F0200303F0FF0023B9042384F84E3249
:10407000BDE8F08194F84832013B012B17D802F0DB
:1040800035FC134B134A002D14BF1946114609780D
:1040900088420CDC0F2803DC01203870BDE8F08179
:1040A000002D14BF1D4615461038C0B228700120DF
:1040B000BDE8F081E3681A7802F0200202F0FF0305
:1040C000002AAFD184F84932A368B0221A70B1E750
:1040D00019E400E018E400E00369490083F83C11AA
:1040E00003690122C3F844220022027183F84E22A0
:1040F0007047F7B51E4600238DF80730D0F84432DC
:1041000004461546002B00F0AF800EB9D0F864626B
:10411000E36812221A70204632460DF10703FFF7BA
:1041200071FF002800F0A08094F8483213B19DF888
:10413000071021B302F0F6FD012384F84D52074623
:1041400084F84E320025D4F844329D4206D2002E27
:104150005FD002F0E7FDC01BB0425AD3D4F844321E
:104160009D4234BF0423002384F84E3294F84D322C
:10417000012B08BF8022A36818BFB02247E05A1E57
:10418000012A71D80120022B84F84E0284F84D5286
:10419000C4F8401235D1D4F84432042B31D9D4F8C4
:1041A000602284F856021368D4F84452D97104F599
:1041B0009F761F6818711E605971136818725972C2
:1041C0009972D9721368033D6842D860A8B2DD8B3A
:1041D000D8831368DA8AD882D4F8602220691368F9
:1041E000B0F1804F99711D6919751861597513687F
:1041F00033D3996889B3136800221A765A769A766F
:10420000DA76A368F0221A70236994F83C211A70B8
:104210002AE06219236992F83C211A702046FFF7C0
:10422000E7FBE3681B78DBB2DA0608D5072384F8DE
:104230004E32A36880221A70E368102209E0D90781
:1042400009D50DB9052300E0062384F84E32A36892
:1042500080221A7082E7013575E70021012018726B
:1042600059729972D972C6E703B0F0BD2DE9F341D6
:104270001646002204469DF82070099D8DF80720FF
:10428000002B00F01581B3F5827F03D3082380F85B
:104290004E320DE1C0F83421C0F85032C0F8382158
:1042A0000DB9D0F86452E36812221A7020462A46EB
:1042B0000DF10703FFF7A6FE002800F0F98094F83F
:1042C00048321BB19DF80720002A40D002F02AFD99
:1042D0007600022384F84E3246F00106236984F802
:1042E0004D72F6B21E7080462046FFF781FBE368F0
:1042F0001A78A368D2B212F0100F07D0072284F800
:104300004E2280221A70E368102205E0D20705D5FC
:10431000052284F84E2280221A70C9E0032284F814
:104320004E22D4F85022012A0CBFA822A0221A70D3
:1043300023691B78D4F83821D4F850329A4280F09F
:10434000B78094F84E32032B40F0B28052E0591EF1
:10435000012900F2AD8002218B4284F84E1284F8CC
:104360004D723DD1D4F85032042B39D9D4F86012B3
:104370002069012384F856320B68B0F1804FDA715E
:104380001D681A7118605A710B6801D39A682AB9AE
:104390000022012018725A729A72DA72D4F86002FE
:1043A0000A680168D4F850520F69002313735373DD
:1043B0009373D3738B7104F130020A6102684B75F9
:1043C00001270F75177253729372D3720368013D00
:1043D0006A429A61AAB2D98BDA830368D98ADA82EF
:1043E000A368F0221A707600236946F00106F6B23F
:1043F0001E705DE02046FFF7FBFA002D56D002F05C
:1044000091FCC8EB0000A84234BF00230123D4F87C
:104410003811D4F85022023191420FD013B194F8E0
:1044200055225AB1D4F83811D4F8502201319142B2
:1044300019D23BB194F85522AAB903E0A268A82189
:104440001170EFE722691178D4F83821501C22440A
:10445000C4F8380182F83010002B3FF46BAF012311
:1044600084F8553266E7002284F85522A268B0210C
:10447000117022691178D4F83821501C2244C4F8F4
:10448000380182F830101BB1042284F84E2201E07A
:1044900084F84E3294F84D22012ADDD12022013ACF
:1044A0007FF4FDAFA26880211170D5E72B46AEE7FF
:1044B00002B0BDE8F081036993F84E32043B042B4F
:1044C0000AD8DFE803F0070E050703000120704754
:1044D00003207047042070470079003018BF012086
:1044E00070470220704790F84E32B3B190F84E32C8
:1044F000052B12D090F84E32062B0ED090F84E328B
:10450000072B0AD090F84E32042B06D090F84E02BA
:10451000B0F108035842584170470120704770B508
:10452000044615460AB9D0F8645202F0FBFB064671
:104530002046FFF7D8FF88BB002DF9D002F0F2FB30
:10454000801BA842F4D302F0EDFB801BA8420ED3DF
:1045500094F84832022B0AD194F856323BB12046E7
:10456000FFF7C1FF0028FAD0042384F84E3294F8F4
:104570004E32012B15D094F84E32022B11D094F804
:104580004E32032B0DD08023013B7FF4FDAF94F816
:104590004E02D0F1010038BF002070BD002DE6D0E2
:1045A000D1E7042384F84E32EDE7F8B5069C0746C0
:1045B0000E461546084611461A462346FFF799FD52
:1045C000304629462246FFF7AAFF3846BDE8F840A4
:1045D000FFF771BFF7B5099D04460E460BB90020E1
:1045E0000EE09DF8207000970195FFF73FFE2046F2
:1045F00031462A46FFF793FF0028F0D0D4F838015F
:1046000003B0F0BDD0F83421D0F838319A4208D246
:10461000D0F834315A1CC0F83421184490F83000D6
:1046200070474FF0FF3070470069FFF7EBBFD0F8DD
:104630003421D0F838319A423DBFD0F83431C01817
:1046400090F830004FF0FF3070470069FFF7EFBF80
:1046500038B5C268836815781978C9B204468806E7
:10466000EDB217D5C9060AD594F85612022900F002
:10467000C38094F85612032940F0C580BCE094F83A
:104680005622022A00F09D8194F85622032A40F017
:10469000788196E115F0100F05F0400304D010204A
:1046A0001070002B00F0A48003F0FF02002B53D009
:1046B00094F84E320A2B04D1D4F85832002B40F033
:1046C000208205F0040505F0FF03F5B1092384F805
:1046D0004E320023C4F84432A368D0221A702369F2
:1046E0001B785B0884F84F32D4F85C3203B19847EA
:1046F000D4F844320BB984F83C31236994F83C2156
:104700001A700123C4F8403272E094F84A2284F807
:1047100054320AB9122002E0012A02D11120B34911
:1047200008E0032A02D11E20B14904E0042A04D182
:10473000AF491F20032202F03DFA0A2384F84E32CB
:104740000023C4F83831A368C0221A7023691B788B
:104750005B0884F84F324BE001F0100101F0FF03D9
:10476000F1B115F0010513D1D4F84022D4F8443248
:104770009A4207D2D4F840325A1C2344C4F840224B
:1047800093F83C5123691D70A368D0221A702FE062
:10479000A368C021197023691B7884F84E2227E092
:1047A00094F84A2284F854320AB9122002E0012A0D
:1047B00002D111208D4908E0032A02D11E208C4924
:1047C00004E0042A04D18A491F20032202F0F2F9EE
:1047D00023691A78D4F83831B3F5817FD2B207D87B
:1047E000D4F83831591C2344C4F8381183F83020E8
:1047F000E36802221A7038BDD4F860321968898BD8
:10480000090643D592E094F84E22012A57D105F0CB
:10481000100202F0FF016AB10022072184F856223B
:1048200084F84E1280211970E36812211970C4F8BF
:10483000402238BD15F001050AD084F85612D4F88C
:104840004022002A4CD0062284F84E2280229DE786
:10485000D4F840220132C4F84022D4F844128A42EB
:1048600002D384F84E525BE094F85622012A1FD1FD
:10487000022284F85622F1221A70D4F860321A7992
:104880005C4B1A70236994F83D217FE794F8561227
:10489000032955D111780806FCD51A79564B1A70A0
:1048A000002384F85632D4F84432013BC4F8403235
:1048B000D4F840222369224492F83C2166E794F818
:1048C0004E22D2B2022A27D1E90607D5072284F860
:1048D0004E2280221A70E36812228BE7E80701D586
:1048E0000522B1E794F85612012908D184F856221E
:1048F000E1221A70D4F860321A793E4B08E00322A4
:1049000084F84E22D4F85022012A0CBFE822E0227B
:104910001A7023691B786BE794F84E22042A95D10C
:1049200094F84D22012A91D0B0222FE794F8561224
:104930000229ABD11A79314B1A70A368F02250E0EA
:104940002F4A1B7912680121994011423FF450AF60
:104950002A4A1370D4F860321A792A4B1A7000234D
:10496000EA0684F856327FF543AF072284F84E22D8
:10497000A26880211170E26812211170C4F84032DF
:1049800038BDD4F83811D4F85022023191427BD08E
:1049900094F84E22042A03D194F85522002A73D0A9
:1049A000D4F83821D4F8503201329A4280F087800E
:1049B00094F84E32042B6AD194F85532002B7ED1F4
:1049C00065E0D4F860321A681B79928B12F0800F80
:1049D0001AD094F85622022A16D1084A1370A368F6
:1049E000E8221A70032384F8563201E7CD4B000009
:1049F000D94B00001B8000401C8000401F800040FD
:104A00002C8000401E80004094F85622032A26D1B4
:104A10003F4A1370002384F8563294F84E22042A39
:104A200018BF84F84E32A368B0221A70D4F85032FE
:104A3000013BC4F83831D4F838315A1CC4F8382155
:104A400022692344127883F8302094F84D32012BE8
:104A50007FF4CEAE2023013B7FF4FDAF12E02D4A60
:104A600001211268994011423FF4C2AE2A4A1370E4
:104A7000D4F860321A79294B1A70002384F8563220
:104A800084F84E32A368E1E6E8221A7088E7D4F889
:104A900038315A1CC4F8382122692344127883F82B
:104AA000302094F84E32042B7FF4A2AE94F85532A5
:104AB000002B7FF49DAE012384F8553298E694F8DC
:104AC0004E220023042A84F8553201D084F84E3255
:104AD000A368B0221A70D4F838315A1CC4F83821AF
:104AE00022692344127883F8302094F84D32012B48
:104AF000D7D12023013B7FF4FDAFA36880221A7039
:104B0000CFE70022C4F83421D4F838019847D8E51B
:104B10001C8000402C8000401E8000401F80004010
:104B200001480021FFF794BD6487FF1F0148012160
:104B3000FFF78EBDCC89FF1F10B5C3681B7803F04B
:104B40002003044603F0FF02EBB990F84A3280F8E4
:104B50004E220BB912200AE0012B01D1112006E0F0
:104B6000032B01D11E2002E0042B02D11F2002F0F2
:104B700067F8D4F858323BB30022C4F83421D4F893
:104B80003801984710BD90F854320133DBB2012B45
:104B900080F8543204D890F84932012B00D110BD6E
:104BA00094F84A320BB912200AE0012B08BF1120F9
:104BB00006D0032B08BF1E2002D0042B04D11F20D7
:104BC000BDE8104002F03CB810BDFFFF01480021D5
:104BD000FFF7B2BF6487FF1F01480121FFF7ACBF99
:104BE000CC89FF1F70B50C4E0C4D0D4C304600218A
:104BF000FEF706FF30460B4E2246294607F09AFC88
:104C000030460121FEF7FCFE304629462246BDE82B
:104C1000704007F08FBC00BFE09FFF1FC539000048
:104C20006087FF1FCC9FFF1F014B0360704700BFD1
:104C3000F8D6000010B5034B0360044601F076FE81
:104C4000204610BDF8D60000044A02600022C0F8D9
:104C50008420C0F88820C0F88C207047F8D6000067
:104C600070B5094C05460E4620460849FBF787FCFF
:104C7000C5F8906044F6206002F0D6F8204604495A
:104C8000FBF77DFC70BD00BF8CAEFF1F00D700009E
:104C900018D70000F8B508460E462C21154607F037
:104CA0006BFD0446002704F8017B304607F047FC03
:104CB0002C212870204607F05FFD0646204606F8A6
:104CC000017B07F03CFC6870304607F038FCA870A8
:104CD000F8BDFFFFF7B50E46154604461F46AE4821
:104CE000AE492B46324601F0F5FA252E00F26C81D2
:104CF000DFE816F026007001320067006E007500D4
:104D0000850097003C0044004B00520058006000B2
:104D10009F00A700AD00BA00C100CE00D600DC00A5
:104D2000E200E900F000FD0005010D0114011A0187
:104D300020012801300138013E0146015A0162017B
:104D40002846D4F8906007F0FAFBD4F89030306031
:104D50001A68934B1A703DE12846D4F8904007F04A
:104D6000EEFBC1B22046FDF7BDFE33E12846D4F884
:104D7000904007F0E4FB84F838002BE12846D4F893
:104D8000904007F0DCFB206324E12846D4F89040F3
:104D900007F0D5FB60631DE1D4F89020204629463A
:104DA000283204E0D4F89020204629462B32FFF721
:104DB00071FF0FE12846D4F8904007F0C0FBE06394
:104DC00008E12846D4F8904007F0B9FBA06101E162
:104DD0002846D4F8904007F0B2FBE061FAE03A468A
:104DE0002846704907F0DDFCD4F89020012310B963
:104DF00082F82030EEE0002182F82010EAE0D4F8BA
:104E00009020204629461432FFF744FFD4F8900042
:104E100001A9143000F069FD01A80121FEF790F806
:104E2000D8E02846D4F8904007F089FB84F82100A8
:104E3000D0E02846D4F8904007F081FB84F8400089
:104E4000C8E0D4F89020204629464132AFE72B78BD
:104E5000312BD4F890304FF0010016BF002283F8B8
:104E6000480083F84820B6E02846D4F8904007F080
:104E700066FB2065AEE02B78312BD4F890304FF0F4
:104E8000010016BF002283F8540083F85420A2E0EA
:104E90002846D4F8904007F052FB84F8550099E07A
:104EA000D4F8902020462946583280E7D4F8902044
:104EB000204629465B327AE72846D4F8904007F02E
:104EC0003EFB206686E02846D4F8904007F037FB8A
:104ED00060667FE02B78312BD4F890304FF00100E2
:104EE00016BF002283F8680083F8682073E0284624
:104EF000D4F8904007F023FB84F86C006AE0284661
:104F0000D4F8904007F01BFB84F86D0062E028465F
:104F1000D4F8904007F013FB20675BE0D4F89020B2
:104F200020462946743242E7D4F89020204629468C
:104F300077323CE72846D4F8904007F000FB84F82D
:104F40007F0047E02846D4F8904007F0F8FAC4F80C
:104F500080003FE02846D4F8904007F0F0FA84F84B
:104F6000840037E0D4F89020204629467C321EE7A2
:104F70002846D4F8904007F0E2FA84F8850029E04A
:104F80002846D4F8904007F0DAFA003018BF012024
:104F900084F886001EE000BF8CAEFF1F1DD7000006
:104FA00038ACFF1F57D700002846D4F8904007F0D0
:104FB000C6FAC4F88C000DE02846D4F8904007F0FB
:104FC000BEFAC4F8880005E004480549FBF7D7FAA3
:104FD000002000E0012003B0F0BD00BF8CAEFF1F39
:104FE00031D7000038B5044602F0EAF8002842D074
:104FF000D4F884506B1CC4F8843002F0F1F8D4F873
:105000008430254423442871DB780D2B33D1251DB2
:1050100028463D2107F0B0FBC4F88C0008B30023FC
:10502000C4F888500370D4F88C30D4F88800013369
:10503000C4F88C3007F083FAD4F88830D4F88C2088
:105040000146981AD4F884300344013B2046FFF708
:1050500041FE10B10848094901E007480849FBF73B
:1050600081FAD4F8842028460021013A07F0D3FAC7
:105070000023C4F8843038BD58ACFF1F50D700005F
:1050800054D7000070B50D4C0D4D26680E2001F070
:10509000D3FA06F0EFFF236845F826005A1C0233C6
:1050A0000021B3F5007F45F82210236004DB05489A
:1050B000BDE8704001F0EEB870BD00BF34ACFF1F1A
:1050C00034A4FF1F18A4FF1F10B5044601F0E2F836
:1050D000204610BD08B50A2001F05AFA1020BDE89C
:1050E000084001F07FBAFFFF70B50569284606F059
:1050F000C1FF0146094807F0C5F800240646A5424D
:105100000ADB204606F0B6FF314607F007F8044BED
:1051100043F824000134F2E770BD00BF00007A4577
:10512000FCA3FF1F044B0548054900221A6041F209
:105130006F7201F099B800BF34ACFF1F18A4FF1FB5
:105140008550000008B5FFF7CFFFBDE80840FFF726
:10515000E9BF2DE9F843089C1D4600232B608946D2
:1051600090462360074601264E4507DB464505DC91
:105170002868796806F0CAFE286004E0206879682B
:1051800006F0C4FE20600136802E07F10407EBD143
:10519000C9EB0800013006F06DFF0146286807F0F2
:1051A00071F82860C8EB0900803006F063FF014603
:1051B000206807F067F82060BDE8F8832DE9F04F1C
:1051C000734B1B68B3F5007F8BB00446C0F2DA80E6
:1051D000002201234FF4807105A803F0BBFC05A851
:1051E0006C49DFF8E49104F06FFA6A486A494FF4B9
:1051F000807204F003FB0026B04623699E425ADA0F
:1052000059F8040F654907F03DF807F04DF9634977
:105210000746D9F8040007F035F807F045F904AB64
:105220000246394600935C4803ABFFF792FF0398B0
:1052300006F0E0FA04F01EFD0022594B06F02EFBAA
:1052400006F00EFE94F848A00746BAF1000F07D109
:1052500036B9544907F000F9002818BF4FF001088B
:10526000D4F808B03846594606F04EFE00210746ED
:1052700007F0F2F800B100275946E06806F044FE56
:105280000146384606F0FEFF4FF07E51074607F014
:1052900001F908B14FF07E570397BAF1000F05D01E
:1052A0002846394607F0F6F810B100E006B12F465F
:1052B00001363D46A1E73C4F3D60B8F1000F58D1A3
:1052C00028463A4907F0E6F808B1394B05E0284688
:1052D000384907F0C1F818B1374B1A6801321A6023
:1052E000364A374B10681968411AB1F5FA6F40D346
:1052F00012681A60304A1368052B914605DDA068D4
:105300004FF0804106F000FE10E0012B0FDC2D492C
:10531000E068A66806F0F8FD0146304607F09CF804
:1053200028B130464FF0804106F0F0FDA060204AE1
:105330001368042B924604DDE068224906F0E6FD7E
:1053400011E0012B10DC4FF08041A068E66806F008
:10535000DDFD0146304607F09DF828B130464FF09C
:105360007F5106F0D1FDE0600023C9F80030CAF893
:105370000030FFF7D7FEB8F1000F01D0386803E026
:10538000284601E0084B18680BB0BDE8F08F00BF5D
:1053900034ACFF1F34A4FF1FFC9FFF1F0000FA4125
:1053A000000034400000704230A4FF1F6666663F74
:1053B0002CA4FF1FCDCCCC3DF89FFF1F14ADFF1FC9
:1053C000F49FFF1F00004040F8A3FF1F0748084A52
:1053D000084908B5002303708023437307F0AAF837
:1053E000054B1A68054B1A6008BD00BF18A4FF1FC3
:1053F0006087FF1FC950000014ADFF1FF49FFF1FFF
:1054000007B50021427B009101690123FFF7CDF828
:1054100003B05DF804FBFFFF01230370002343701A
:1054200007A3D3E90023C0E9022307A3D3E900239C
:10543000C0E9042306A3D3E90023C0E9062370478B
:105440000000006078D56E3F000000007BCD6E3F0D
:10545000000000409E9C6C3F70B5094C0D462046F4
:1054600053211646FEF738FE29462046FEF76CFA11
:1054700020463146FEF768FA2046FFF7C1FF70BDAF
:10548000E09FFF1F30B5134B597B87B000240029E4
:1054900005461869009414BF032323460193012392
:1054A00004932246234602940394FEF7F5FC284613
:1054B00022462D21FFF7D0FF28462D211022FFF78D
:1054C000CBFF28462D21082207B0BDE83040FFF76A
:1054D000C3BF00BFE09FFF1F002904DBFF29B4BF4B
:1054E0000A46FF2200E000222421D2B2FFF7B4BF17
:1054F000002904DBFF29B4BF0A46FF2200E0002296
:105500002521D2B2FFF7A8BF002904DBFF29B4BFD1
:105510000A46FF2200E000222621D2B2FFF79CBFFC
:10552000002904DBFF29B4BF0A46FF2200E0002265
:105530002821D2B2FFF790BF002904DBFF29B4BFB6
:105540000A46FF2200E000222921D2B2FFF784BFE1
:105550002DE9F7431D4C0D460646532120461746BC
:105560009946FEF7B9FD29462046FEF7EDF920469B
:10557000FFF746FF20465321FEF7AEFD002501232D
:105580008DE82800617B206953223B46FFF722F813
:105590002069D0F83821D0F834311FFA85F89A42C2
:1055A0000FFA88F805F1010504D0FFF72BF809F888
:1055B0000800EDE7B84503D0002333700123737072
:1055C0000248FFF71DFF03B0BDE8F083E09FFF1F17
:1055D000F8B504460F4616461D46062200F1200384
:1055E0003221FFF7B5FF94F8212094F8203043EAE8
:1055F00002233B8094F8232094F8223043EA0223CC
:10560000338094F8252094F8243043EA02232B8039
:10561000F8BD8A1C0B1DFFF7DBBF73B50E4669464C
:105620000546FFF7F6FF083E00243DF9040006F0AA
:10563000CFF8F5E9022306F031F90234062CE6E949
:105640000201F2D102B070BD37B5043989B20C291C
:1056500098BF0C4B4FF0010298BF5C5C0DF1070343
:105660004FF0310188BF00240546FFF771FF9DF818
:10567000072022F01302284631212243FFF7ECFED7
:1056800003B030BD59D700002DE9F34114461E4642
:1056900001220DF10703012580460F4605FA04F4A7
:1056A000FFF756FF9DF807200EB1224301E022EAE2
:1056B00004028DF80720404639469DF80720FFF781
:1056C000CBFE02B0BDE8F0810B4606222721FFF792
:1056D000DBBF0B4605222721FFF7D6BF0B4604226E
:1056E0002721FFF7D1BF002330B5037043708370CB
:1056F00082B101F10C04E55C01F10F04E45C35B109
:105700002CB1013405FB04445443240CC45401332C
:10571000032BEED130BDFFFF0B4B70B51C68621C34
:105720008C421A600EDB094C094926684FF47A75E1
:105730006A430D68751BB2FBF5F2428000221A60C5
:1057400023680B6070BD00BF44ACFF1F14ADFF1F8A
:105750004CACFF1F2DE9F34705460E466B68184C0D
:1057600033B101F0DFFA23686A68C01A9042F5D3BA
:1057700001F0D8FA134B20601C68D4B16B8894F800
:105780001280D4F804A0D4F81490632B9CBF00239B
:10579000A3742368214601A832465F68FFF7A3FF80
:1057A000204651464A4601ABB84784F81280A468A7
:1057B000E3E728461921FFF7AFFF02B0BDE8F08705
:1057C00048ACFF1F40ACFF1F2DE9F34705460E46CE
:1057D00017466B68174C33B101F0A4FA23686A6866
:1057E000C01A9042F5D301F09DFA134B20601C685B
:1057F000CCB16B8894F81290D4F814A0632B9CBFA2
:105800000023A3742368214601A83A46D3F80080F8
:10581000FFF769FF20463146524601ABC04784F886
:105820001290A468E4E728461921FFF775FF02B03B
:10583000BDE8F08748ACFF1F40ACFF1F4AB169B11B
:10584000074B93FBF1F143688B422CBF43604160EF
:10585000704711B1024B93FBF1F14160704700BFFB
:1058600040420F00F8B51E1E036804461546D8BF17
:1058700000250F469B6805EB4505D8BF16462F440B
:105880009847236867601B69666120469847012234
:1058900001460248FFF7D2FF2046F8BD38ACFF1F93
:1058A000024BFF221A7000225A80704738ACFF1F4B
:1058B00030B505781C1C18BF012425B115FB03F574
:1058C00004EB1525EDB20570087820B110FB03F04C
:1058D00004EB1020C0B20870117821B111FB03F164
:1058E00004EB1121C9B2117030BD2DE9F7430778DF
:1058F00090F80190847807F01F05ED0005EB850214
:1059000002EB021207F0400617F0800F8846C2F340
:10591000072207F0200006F0FF0328D17EB900F02F
:10592000FF0138B9D3438DF805308DF806208DF886
:1059300007104BE0AB218DF8051055320BE000F05D
:10594000FF0368B9AA2115FB01F52D12C5F1AB05BE
:105950008DF80550553A8DF806208DF8073035E062
:1059600000238DF80530D3438DF806302CE0B6B90E
:1059700000F0FF0168B98DF80510AA2315FB03F5A7
:105980002D0AC5F1AB0355358DF806308DF807505B
:105990001CE08DF805208DF80630D24314E000F0AD
:1059A000FF0340B902F155018DF805108DF806305E
:1059B000C2F1AB0208E0A2F155038DF805300023D7
:1059C0008DF80630C2F155028DF80720B9F1FF0FAE
:1059D0001FD04B466FEA09090DF105000DF10601D4
:1059E0000DF107025FFA89F9FFF762FF19FB09F968
:1059F0009DF805304FEA19294B448DF805309DF884
:105A000006304B448DF806309DF8073099448DF8E8
:105A10000790FF2C0FD014FB04F3003418BF0124AF
:105A200004EB13230DF105000DF106010DF1070242
:105A3000DBB2FFF73DFF9DF8053088F800309DF898
:105A4000063088F801309DF8073088F8023003B03E
:105A5000BDE8F0832DE9F04FC44E04120B0A16F88E
:105A600004803444984464785FFA88F82344DBB2B5
:105A700016F808B0F45C4FEA122C334406EB080524
:105A8000E3445B786D785FFA8BFBC9B287B05FFA4D
:105A900082F916F80B804A08634411FB01F1DBB26E
:105AA000C0B2091265446444EDB2E4B203930091BC
:105AB000430808F00F014FEA59075FEAD10A019540
:105AC0000294D5B2DCB219FB09F910FB00F04FEAE1
:105AD00029290CBF26462E46032904974FEA202089
