:1000000000800020BD010000C50B0000910B000026
:10001000910B0000910B0000910B0000910B000070
:10002000910B0000910B0000910B0000C50B00002C
:10003000C50B0000910B0000C50B0000810B0000F8
:10004000C50B0000C50B0000C50B0000C50B000070
:10005000C50B0000C50B0000C50B0000C50B000060
:10006000C50B0000C50B0000C50B0000C50B000050
:10007000C50B0000C50B0000C50B0000C50B000040
:10008000C50B0000C50B0000C50B0000C50B000030
:10009000C50B0000C50B0000C50B0000C50B000020
:1000A000C50B0000C50B0000C50B0000C50B000010
:1000B000C50B0000C50B0000C50B0000C50B000000
:1000C000C50B0000C50B0000C50B0000C50B0000F0
:1000D000C50B0000C50B0000C50B0000C50B0000E0
:1000E000C50B0000C50B0000C50B0000C50B0000D0
:1000F000C50B0000BD200000C50B00003926000024
:10010000C50B0000E52A0000C50B0000C50B000070
:10011000C50B0000C50B0000C50B0000C50B00009F
:10012000C50B0000C50B0000C50B0000C50B00008F
:10013000C50B0000C50B0000C50B0000C50B00007F
:10014000C50B0000C50B0000C50B0000C50B00006F
:10015000C50B0000C50B0000C50B0000C50B00005F
:10016000C50B0000890F0000C50B0000C50B000087
:10017000C50B0000C50B0000C50B0000C50B00003F
:10018000C50B0000C50B0000C50B0000C50B00002F
:10019000C50B0000C50B0000C50B0000C50B00001F
:1001A000C50B0000C50B0000C50B0000C50B00000F
:1001B000C50B0000C50B0000C50B0000564B4CF2F0
:1001C000205210B51A804DF628121A8000BF00BFC9
:1001D00000F0FCFC514B4FF010621A60504A9A60DC
:1001E000504ADA60A3F53043203B1A6812F480725B
:1001F00004D14D490A604FF4A8521A604B4B1A784B
:10020000110703D51A7842F008021A70484B2A22C7
:100210001A700023474A48499818884204D247492F
:10022000595899500433F5E7454A464B9A424FF0E6
:10023000000302D242F8043BF7E74349434A5958C6
:1002400099500433B3F5DE7FF7D1414B802103F899
:10025000011B40498B42F9D13F4B1A603F4B0A22A8
:100260001A70A3F5805324225A70A0221A709A792A
:100270009207FCD59A79D406FCD4394B9A7902F0CE
:100280000C02082AF9D103221A7140225A719A7974
:100290009006FCD5324B9A795106FBD5314A32494A
:1002A00011600221516020221A702D4B9B7903F0BE
:1002B0000C030C2BF9D12D4B2D4A1A602D4B2E4AD5
:1002C0001A6000225A60072243F8042C2B4AC3F814
:1002D0000C2D62B600F040FD134B1B68DA0705D504
:1002E000274800F0B9FC274B274A1A60274B1B7898
:1002F0005B0609D5234C244A2368934204D1204845
:1003000000F0AAFC0023236004F01EFD00F064FC52
:1003100000F02EFCFEE700BF0E20054030800440B8
:10032000823F04000100002B14D0034002D007409C
:1003300000E007406087FF1F7488FF1F9052000095
:100340007888FF1F348CFF1F000000000082FF1F11
:1003500000E400E05FE400E008ED00E0005006404B
:100360000040064044800440000003010480044033
:10037000C010050014E000E0FF760100000020201E
:10038000BBC0F6561CE00340A5C3945A00F00740DA
:10039000FFFFFFFFFFFFFFFFFFFFFFFFFFFFFFFF6D
:1003A000FFFFFFFFFFFFFFFFFFFFFFFFFFFFFFFF5D
:1003B000FFFFFFFFFFFFFFFFFFFFFFFFFFFFFFFF4D
:1003C000FFFFFFFFFFFFFFFFFFFFFFFFFFFFFFFF3D
:1003D000FFFFFFFFFFFFFFFFFFFFFFFFFFFFFFFF2D
:1003E000FFFFFFFFFFFFFFFFFFFFFFFFFFFFFFFF1D
:1003F000FFFFFFFFFFFFFFFFFFFFFFFFFFFFFFFF0D
:10040000FFFFFFFFFFFFFFFFFFFFFFFFFEFFFFFFFD
:1004100010B5054C237833B9044B13B10448AFF33E
:1004200000800123237010BD7888FF1F00000000AA
:100430009052000008B5064B1BB106480649AFF3C1
:1004400000800648036813B1054B03B1984708BD07
:1004500000000000905200007C88FF1F7488FF1F7E
:1004600000000000014B0360704700BF884E000091
:1004700010B5034B0360044600F0CEFB204610BDD0
:10048000884E000010B5054B0360002303738360A2
:10049000002200234160C0E9042310BD884E000003
:1004A000017B2DE9F843804616461F46D0F804909C
:1004B000D1B984684C4508DAD0E9040103F090FC16
:1004C000C8E904010134C8F80840D8F808304B45A1
:1004D0000AD1484603F0D0FD02460B46D8E9040194
:1004E00003F05AFFC8E90401D8F808304B4525DB72
:1004F000D8E90445304622462B46394603F06EFCC7
:10050000064609F101000F4604F0E8F901464FF0F4
:10051000804004F0EBFA03F0C1FD02460B46304682
:10052000394603F00FFE0B4602462946204603F0EB
:1005300057FCC8E90401012388F80C30BDE8F883B2
:10054000037B13B1D0E904017047002000217047FC
:10055000007B704738B5044608460D4604F06EFC33
:10056000236802465B6820462946984738BD38B55F
:100570000446FFF7EFFF0546204600F0A1F92844A6
:1005800038BD08B50F20002100F096FB1020012196
:1005900000F092FB10200121BDE8084000F06CBB88
:1005A00070B501F0CFF800284AD0264D264C2E68B1
:1005B000731C2B6001F084F82B68A055234413F8BA
:1005C000013C0D2B3CD121492148FFF7C3FF2146B7
:1005D0001F48FFF7CCFF20461E49022204F036FCDC
:1005E000064650B91C491A48FFF7C1FF10200121E7
:1005F00000F062FB102031460FE02046174902222E
:1006000004F024FC60B916491148FFF7B0FF102030
:10061000012100F051FB1020012100F02DFB07E02B
:1006200010490B48FFF7A3FF1020002100F044FB06
:100630002A6805480021013A04F0B4FB00232B602E
:1006400070BD00BF3889FF1F9C88FF1F904E0000BF
:10065000488AFF1FBA4E0000974E0000E04E00008F
:10066000BD4E0000E34E0000744B2DE9F74F1E68AD
:100670004FF4806400259B46DBF800309B1B1D2B4C
:100680000FD80F2000F004FA6D4BB0F5806F1860A2
:10069000F2D2A84203D8844228BF0446ECE70546BC
:1006A000EAE7281B04F016F96649DFF8C8A104F050
:1006B00069F94FF06A5104F065F903F0EFFC044664
:1006C000DAF800000D4603F0E9FC5F4B06461868B7
:1006D0000F4603F0E3FC224680462B46894630460F
:1006E000394603F07BFB02460B464046494603F081
:1006F00029FD02460B463046394603F06FFB03F0F6
:10070000E3FF0022514BCAF800002946204603F0BF
:1007100019FD03F0B1FF00214FF42F73C82200939D
:100720000B4600F0DDF803F0A7FC0022474BDFF892
:10073000488103F031FE02460B4600204FF0804115
:1007400002F070FA04464248D8E900670D46FFF708
:10075000F7FE02460B463046394603F083FF3D4E16
:1007600010BB3B48FFF7F4FEF0B1344B1A68336816
:10077000D31AB3F57A7F17D84FF00009484603F033
:100780007BFC22462B4606460F4603F04DFFD0B9B0
:100790002F48FFF7D5FE02460B463046394603F098
:1007A00043FF834678B929E0D8E9000100222A4BAB
:1007B00003F0C8FC02460B462548FFF771FEDBF844
:1007C00000303360D8E72248FFF7BAFE03F054FF49
:1007D000814502D1214822490BE030463946224664
:1007E0002B4603F021FF10B11C481E4901E01B48B5
:1007F0001D49FFF7AFFE09F10109BFE7174800F0F7
:100800005FF85E46304604F069F8DAF8001004F04C
:1008100057FA28B111481549FFF79CFE0136F1E758
:100820000E4800F04DF8D8E900231149C8E9004509
:10083000C1E9002303B0BDE8F08F00BF6089FF1F4E
:100840009888FF1F333353406487FF1F00005940CF
:100850002089FF1F9488FF1F0000F83F488AFF1F70
:10086000094F00000B4F0000954E00000D4F000097
:100870005089FF1F4889FF1F4089FF1F08B5FFF7F8
:100880008FFEBDE80840FFF7EFBEFFFF10B5074C35
:1008900014212046FFF7F6FD054A0649204604F0DC
:1008A00037FA054B1A68054B1A6010BD2089FF1FE7
:1008B0006087FF1F650400006089FF1F9488FF1F89
:1008C00007B5064B1B88ADF80430036801A95B68C7
:1008D0000222984703B05DF804FB00BF0F4F0000F1
:1008E00010B5029C401AE41A4443521A94FBF2F0E9
:1008F000184410BDF0B5304B1B681B06FBD42F4BC2
:100900001B6813F08002F6D172B62D4B19780029BE
:1009100050D02C4908684F688E68CD680C693844FF
:10092000143130440968284420440844C0F34E0080
:10093000254940F400400860C86A0F6B4E6B8D6B10
:10094000CC6B384440313044096828442044084482
:10095000C0F34E001D4940F40040086001F1081149
:10096000143151F8140C51F8107C51F80C6C51F8FA
:10097000085C51F8044C0968384430442844204449
:100980000844C0F34E00124940F400400860C86AB1
:100990000F6B4E6B8D6BCC6B384440313044096823
:1009A000284420440844C0F34E000A4940F4004063
:1009B00008601A7062B6F0BD24B0034024B00B404A
:1009C0005989FF1F38B003402CB0034030B00340BA
:1009D0002CB00B4030B00B4010B5204B20482149C3
:1009E00060221A70E1225A701F4B204A1C78204B5B
:1009F000082C01D1012402E00A2C03D1392404601F
:100A0000132005E00C2C0CBF35243D24046012207B
:100A1000086014601860174B17491B78174A03B118
:100A200001230B601360164B164A1978164B0129E7
:100A300001D880210BE0042901D8842107E008298E
:100A400001D8852103E0102994BF862187211160F8
:100A500019600E4B01221A7010BD00BF0040074004
:100A600008B003400CB003406887FF1F08B00B407C
:100A70000CB00B405C89FF1F20B0034020B00B403E
:100A80006987FF1F24B0034024B00B405989FF1F22
:100A90000D2838B50FD9172801D80E380AE0A0F173
:100AA0001A03052B01D8093804E0A0F12203062B14
:100AB00047D81838C0B2244B1C5C244B1B780BB1B0
:100AC000FFF718FF210614D472B6214B214D1C608C
:100AD00001232B7062B672B61D4B1B681A0601D536
:100AE0001D4B1FE02B78002BEFD062B600F0FEFE0E
:100AF000F1E772B6194B1A4D1A6814F0400F14BF83
:100B000022F0100242F010021A60164B04F03F026D
:100B10001A6001232B7062B672B6124B1B681B065B
:100B200008D5114B186800232B7062B60F4B1B7849
:100B3000184138BD2B78002BDCD062B600F0D6FE11
:100B4000EAE7002038BD00BF114F00005989FF1FA0
:100B500000B003405B89FF1F10B003400CB00B4096
:100B60005A89FF1F00B00B4010B00B405889FF1F7F
:100B700008B5FFF706FDFFF781FE00F0B7FEFAE7C4
:100B8000024B1A6801321A60704700BF6089FF1F6C
:100B900008B50B4C2368580301D500F0F5F923681C
:100BA000590501D501F08AFA23681A0501D501F02B
:100BB00043FD2368DB04ECD501F094FFE9E700BFB7
:100BC0003480044008B5FFF7E3FFFFFF014B10221C
:100BD0001A807047002005407047FFFFEFF3138332
:100BE0009BB9EFF3108098B9EFF3058323B10F2B76
:100BF00004D9084A985C01E04FF48070EFF3118348
:100C00003BB1834238BF184670474FF0FF30704702
:100C100018467047F0E300E004F0BCB810B50023BC
:100C2000B0FBF2F402FB1400092894BF30303730D7
:100C3000C0B2C85420460CB10133F1E7CA18547051
:100C400022469A4206DA885CCC5C8C54C854013245
:100C5000013BF6E7084610BD044B054900221A6027
:100C60000A60044A106010221A60704714D00340D2
:100C700004D0034000D00340212810B518D80D4AF5
:100C800052F8303093F880423CB1012211B183F820
:100C9000802010BD83F8002110BD02EBC000436826
:100CA0001A6811B142F0030201E022F002021A6058
:100CB00010BD00BF284F0000212816D80B4A02EBB8
:100CC000C00301295B6852F8302004D182F88012F9
:100CD0004FF4A27208E0002082F8800211B94FF4AC
:100CE000807201E040F203121A607047284F000042
:100CF00072B60B4B0B491A680B4B1B68096862B63E
:100D0000490102D5322A88BF0133C2F5BB326021C6
:100D1000FF32B2FBF1F24FF47A7000FB0320704710
:100D200018E000E004ED00E06089FF1F38B50446DC
:100D3000FFF7DEFF054624B938BD013C0AD005F5B2
:100D40007A75FFF7D5FF401BB0F57A7FF5D200F03A
:100D5000CDFDF6E738BDFFFF1F4B4FF4000210B585
:100D60001A604FF080721A604FF000721A604FF0F4
:100D700080621A604FF000621A60184B184A194CD2
:100D800000204BF6FF7118605960282313609360B0
:100D90001361936113629362136393630922226068
:100DA00004F58054043420606160A360236144F83A
:100DB000042C04F5FE2420600B4801600B490B60F5
:100DC0008B600B4B1A60FFF707FEFA20FFF7AEFFB0
:100DD000BDE8104000F0D6BB08E100E0048003400D
:100DE0000C8003400080034008800B400C800B40C7
:100DF00000800B40F0B50C4B0C4C1A7842F0020509
:100E000004EBC50682F00102706009481A7006788A
:100E1000002E0CBF8827C82786F0010647EA01414B
:100E2000067044F83510F0BDCC89FF1F0080FF1F0D
:100E3000448AFF1F431E032B10B510D872B6094A0F
:100E400052F8230048B1416842F82310064A01884D
:100E500032F81340611A22F8131062B610BD002058
:100E600010BD00BFBC89FF1F208CFF1F0138032865
:100E70000AD872B6054B53F82030002013B1013068
:100E80005B68FBE762B6704700207047108AFF1F5F
:100E900010B572B60123174A1A4412F8012C120732
:100EA0001CD59900144A52F831402CB902EB431377
:100EB00008305860114B09E041F0010152F831400F
:100EC00064B902EBC103083058600D4B42F8313071
:100ED0000C4B1A78013A1A7062B610BD0133052B1B
:100EE000D9D162B6074B00221A70BDE8104000F05D
:100EF000C5BB00BF605100000080FF1F880040009C
:100F0000C80040003A8AFF1F431E032B30B532D879
:100F1000194A400140F01000104472B6174CE25CD0
:100F2000032A09D8DFE802F0160218050830022269
:100F300013E00830042210E01148124A50F8234010
:100F400014B940F8231002E052F82300416042F83F
:100F500023100FE0032200E00522E25410F0080FF6
:100F600001F108030A8843600CBF8823C82343EAC1
:100F70000243036062B630BD0080FF1F7889FF1F07
:100F8000108AFF1F208AFF1F2DE9F84FAB4F3C78D6
:100F9000E4B214F0040F3D4619D0A94B1B78A3B15D
:100FA000A84A117801F0FF0321B1013BDBB21370B5
:100FB00003B900BEA44A117801F0FF0329B1013B37
:100FC000DBB213700BB900F06DFC04233B7004F02E
:100FD000080303F0FF02002B00F067829B4B9C4C40
:100FE0001A78D2B215094FEA920840F0E48104EB76
:100FF000C803596854F83830C3F38303013B0C2B02
:1010000000F2D681DFE813F095019501D401D401F7
:10101000D401D401D401D401B001D401D401D4014C
:101020000D008C4D0A684B688B486B6001218B4B1F
:1010300044F838302A60DFF85082017092B240F2F2
:10104000816000238242C8F800302361A36117D871
:10105000B2F5D06F80F01E81B2F5817F00F0CF80B5
:1010600006D8802A00F0BA80822A00F0BB8031E1E5
:1010700040F202339A4200F0D180B2F5A06F1CE03A
:1010800042F22100824200F051810ED8B2F5086F81
:1010900000F09E80B2F5106F40F01C81684B6C4EE2
:1010A000AA781A7006F180090AE042F221218A42E8
:1010B00000F0088142F221339A4200F00F8109E1E9
:1010C000336A1B0603D5706A083800F0D7FA083671
:1010D0004E45F5D10026B146DFF8B0A156F80A001A
:1010E00028B1D0F804B000F0C9FA5846F8E74AF839
:1010F00006005B4BDFF898A1F05056F80A0028B1C3
:10110000D0F804B000F0BAFA5846F8E7554B4AF860
:101110000600F050544B23F81900544B19F80320E3
:10112000023A032A08D8DFE802F00204020400228F
:1011300000E0012203F8092009F10109B9F1040FC7
:1011400006F10406C8D14A4B00221A7001269A46BD
:10115000484A494B3244334412F8012C9B0012F0A8
:10116000080F1A704FEA860925D000F069FA38B1E5
:1011700004EB461308305860404B44F8393006E021
:101180009AF8003044F8390001338AF8003000F052
:1011900057FA49F0010338B104EBC302083050603C
:1011A0002E4A44F8332006E044F833009AF8003021
:1011B00001338AF8003049F00202013649F0030990
:1011C0000023052E44F8323044F83930C0D186E08F
:1011D0001B4B2B4C1B7823700B4683E0284C237051
:1011E00063707EE0AA88042A74D8254C920023708C
:1011F0006370244B9B5C9E0773D5217071E0AA88B5
:1012000002F07F02042A65DC6B88002B62D191001A
:101210001C4A0A44117821F0020159E0AA8802F020
:101220007F02042A56DC6B88002B53D19100154AAB
:101230000A44117841F002014AE000BF80200740D3
:10124000438AFF1FCD89FF1F588AFF1F9020074048
:101250000080FF1F308AFF1F448AFF1FC800400024
:101260006889FF1F208AFF1F208CFF1F7889FF1FBE
:101270003A8AFF1F6051000030C80110880040000A
:101280003B8AFF1FC02007406489FF1FBC89FF1FE6
:10129000108AFF1F6A88A9889F4B53F8084CA3F156
:1012A0000C00BCB133F80C6C964209D133F80A6CCF
:1012B0008E4205D1120A032A0CBF2378038911E05C
:1012C0000C33EAE7954A1168954A1160A978954A66
:1012D000117004E0944B0F221A7027E000231C4683
:1012E00000E00223EE88B34238BF1E46402E34BFD2
:1012F0003546402520462946FFF77CFD761B2C44C9
:1013000003D1402D12D1354603E0402E34BF35467F
:10131000402520462946FFF76DFD761B2C4401D160
:10132000402D03D1814AC8F8004016800122804B2D
:101330003DE0804B1A8842F221039A4210D10023EB
:101340007D4AC85C98540133072BF9D11368862B6A
:1013500002D17A4B0F221A7000200146FFF74AFD96
:10136000774B44F8383023E0764E3568B5B1DFF876
:10137000BC81B8F80090B9F1400F34BF4C4640240E
:1013800028462146FFF736FDC4EB09039BB2A8F8B7
:1013900000300BB9402C00D12B193360654B1A88F3
:1013A000B2F5A06F04D100225A709A78664B1A7079
:1013B00001225F4B6CE004EBC806013D736802F04C
:1013C0000802A3F10800EDB202F0FF01002A36D0B6
:1013D00000F054F95D485E4B50F82520EAB15168A1
:1013E00040F8251002F108017160595D03290BD8FE
:1013F000DFE801F002040608032104E0022102E014
:10140000052100E00421595516F0080F12880CBF81
:101410008823C82343EA024342E05A5D032A07D8DF
:10142000DFE802F040400204002206E0012204E06E
:1014300016F0080F0CBF022203225A5532E054F86E
:101440003820120C23F8082C22B3DFF834E123F8FB
:10145000061C43F8041C5EF825303E4913B94EF8CB
:10146000250002E051F8253058603B4B41F825003B
:1014700033F815100A4423F8152000F0E1F810B1F4
:101480000830706006E0354B44F838001A780132B5
:101490001A7007E02A4B324A16F0080F08BF1346AD
:1014A00044F8383008233B7070E5E0071FD5204929
:1014B0002B482C4C02230B702B4B1A702B4B1860B3
:1014C00098602B48D8601A619A615C60164B0D20B9
:1014D00018702848FF2303702B700274264A13707B
:1014E000264B9F221A7001230B70BDE8F88F21064E
:1014F00004D50D4B0D221A7080232B70A20705D541
:101500001C4B1A78D2B21A7002232B70E30644BF28
:1015100010232B70BDE8F88F705100006089FF1F09
:10152000308CFF1F688AFF1FC0200740388AFF1FCA
:1015300094200740308AFF1F288CFF1FCD89FF1F92
:10154000C80040006489FF1F98200740108AFF1FD1
:101550007889FF1F6889FF1F208CFF1F3A8AFF1FB1
:10156000880040007C89FF1FCC89FF1F0080FF1F7F
:10157000D089FF1F882007408C2007408420074027
:10158000BC89FF1F08B501F015FB00221A4B002192
:10159000D15098180832882A4160F7D1174A10684C
:1015A00040F48020106002F528326832C3F307202F
:1015B0001070C3F307401B0E10751376FF2302F85B
:1015C0001C3C02F8143C02F88C3C012302F8083C55
:1015D00082F8641002F8183C094B70226FF45071C5
:1015E0001A700B444FF400721A6003F1C04303F504
:1015F000C82310221A7008BD0080FF1F34800440E9
:1016000049E400E000F09EB800F05AB800F07EB85F
:1016100000F01AB9084600F00BB90846114600F070
:101620009FB87047044B00221A714FF47A711A73F5
:10163000024A99601A607047488AFF1F40500000B4
:1016400072B60C4A1168B1FA81F30B2B02D962B65B
:10165000002070474FF00040D84021EA000111609F
:1016600062B6054948225343C8180022CA50426056
:10167000704700BF6C87FF1F0084FF1F0C4B482280
:10168000C31AB3FBF2F30B2B11D80A4A127822B11A
:10169000094A12780AB1FFF7FBBB72B6074A4FF04E
:1016A000004121FA03F311681943116062B67047D3
:1016B0000084FF1F3A8AFF1F438AFF1F6C87FF1FAA
:1016C00010B5104C23686BB120684288531C02444B
:1016D000147A0288934212D3FFF7D0FF094B0022FD
:1016E0001A600DE0084B1B7813B94FF0FF3010BDA6
:1016F0000320FFF79FFB20600028E5D1F5E743803A
:10170000204610BD648AFF1F438AFF1F10B50B4C93
:10171000236813B123686BB902E0094B1B7813B936
:101720004FF0FF3010BD0320FFF784FB206000283E
:10173000F0D1F5E75A881344187A10BD648AFF1F68
:10174000438AFF1F044B9888044B1B681BB11A88FF
:101750005B88D31A18447047208CFF1F648AFF1FD0
:101760002DE9F8432D4E012307460C463370002C1B
:101770004FD02B4D2B68A9462BBB4AF2F928294B99
:101780001B7803F0FF020BB9327015E00420FFF75D
:101790006DFB072808D801233370FFF751FFC9F804
:1017A000000080B91D4B1870B8F101081E4B01D024
:1017B0001A782AB101221A704FF0FF30BDE8F88381
:1017C00000F094F8DBE72968174A48880023137073
:1017D000C0F14002944238BF224600F1080C104488
:1017E0008C444880A41A934204D0F85C0CF803009F
:1017F0000133F8E71F444B883F2B06D940230B8069
:101800000420FFF781FB00232B60084B05221A7090
:10181000ADE734702046BDE8F88300BF598AFF1F4A
:101820005C8AFF1F438AFF1F608AFF1F588AFF1FC1
:1018300007B502AB012103F8010D1846FFF790FF31
:1018400003B05DF804FBFFFF2DE9F041114B1B785D
:10185000F3B1114E114B3468114D01271F7098469A
:101860004CB1002763882F70042023802146FFF7A6
:101870004BFB376009E0FFF7E3FE014620B104208F
:101880002C70FFF741FB00E02F70002388F8003038
:10189000BDE8F081438AFF1F5C8AFF1F598AFF1F42
:1018A000588AFF1F38B50E4B1B7803F0FF05ABB904
:1018B0000C4C216831B14B880B800420FFF724FBCE
:1018C000256038BDFFF7BCFE014620B10420BDE80D
:1018D0003840FFF719BB044B01221A7038BD00BF16
:1018E000598AFF1F5C8AFF1F588AFF1F10B50E4CD4
:1018F0002378BBB901232370FFF724FF08B1FFF75A
:1019000090FE00F065FB08B100F082F800F01EFECA
:1019100008B100F0FFF801F081F808B100F07CF99F
:101920000023237010BD00BF698AFF1F08B503683C
:10193000C9B21B68984708BD08B50368C9B21B68DF
:10194000984708BD08B50368C9B21B68984708BD29
:1019500008B50368C9B21B68984708BD4B0803F176
:10196000376000F5D830B0FBF1F000F065B910B584
:101970004B0803F1376000F5D8301446B0FBF1F0A6
:1019800000F05AF92046BDE8104000F09BB900F085
:10199000C3B9084600F0F4B908B5084600F00CFADF
:1019A000003018BF012008BD08B5084600F026FA2F
:1019B000003018BF012008BD00F00ABB00F042BB98
:1019C00000F016BB00F0E8BA00F054BB00F0EEBA2D
:1019D00008B5084600F038FA012008BD08B50846E9
:1019E00000F032FA012008BD10B508461446114631
:1019F00000F074FA204610BD38B508460D4603F0D5
:101A00001DFA04462146284600F068FA204638BDF3
:101A10007047FFFF044B00221A714FF47A711A735A
:101A2000024A99601A6070476C8AFF1F605000007C
:101A300008B50368C9B21B68984708BD08B50368B4
:101A4000C9B21B68984708BD08B50368C9B21B68CE
:101A5000984708BD08B50368C9B21B68984708BD18
:101A60004B0803F1376000F5D830B0FBF1F000F01F
:101A7000A9BB10B54B0803F1376000F5D830144608
:101A8000B0FBF1F000F09EFB2046BDE8104000F0F6
:101A9000DFBB00F007BC084600F038BC08B50846BC
:101AA00000F050FC003018BF012008BD08B5084602
:101AB00000F06AFC003018BF012008BD00F046BDF0
:101AC00000F07EBD00F052BD00F024BD00F090BDDE
:101AD00000F02ABD08B5084600F074FC012008BDDE
:101AE00008B5084600F06EFC012008BD10B5084698
:101AF0001446114600F0B0FC204610BD38B508462B
:101B00000D4603F09BF904462146284600F0A4FC4C
:101B1000204638BD7047FFFF044B00221A714FF476
:101B20007A711A73024A99601A6070477C8AFF1FA3
:101B3000B850000008B50368C9B21B68984708BDD3
:101B400008B50368C9B21B68984708BD08B50368A3
:101B5000C9B21B68984708BD08B50368C9B21B68BD
:101B6000984708BD4B0803F1B76000F55840B0FB3B
:101B7000F1F000F0E5BD10B54B0803F1B76000F5DA
:101B800058401446B0FBF1F000F0DAFD2046BDE805
:101B9000104000F017BE00F03FBE084600F070BED7
:101BA00008B5084600F088FE003018BF012008BDC7
:101BB00008B5084600F0A2FE003018BF012008BD9D
:101BC00000F02CBF00F064BF00F038BF00F00ABF87
:101BD00000F076BF00F010BF08B5084600F0ACFE7C
:101BE000012008BD08B5084600F0A6FE012008BD8A
:101BF00010B508461446114600F0E8FE204610BD18
:101C000038B508460D4603F019F904462146284622
:101C100000F0DCFE204638BD7047FFFF044B002279
:101C20001A714FF47A711A73024A99601A607047F8
:101C30008C8AFF1F10510000194B1A6842F4806211
:101C40001A60184A00231370174A1370174A13704A
:101C5000174A1370174A1370174B40F213321A6069
:101C60004FF451725A60154BC0F344321A70C0F3EE
:101C700047125A700221042200F01F0098729A70D5
:101C8000D9745A7588221A743C22DA700C4B40229F
:101C90006FF44A711A700B444FF400521A60704787
:101CA00034800440228BFF1FA18AFF1F288BFF1F57
:101CB000238BFF1FA08AFF1F40A0044000A0064006
:101CC0002DE400E0134A937800F0030103F0EC03E5
:101CD0000B43410748BF43F01003937000F00F031C
:101CE000042B0C4903D18B7943F040038B7153795A
:101CF000C20603F0EF03074A48BF43F010035371D5
:101D00009379810603F0EF0348BF43F0100393710A
:101D1000704700BF00A0064008B5114B1B685B056B
:101D200000D408BD0F4B1A7802F0FF0312B1FFF781
:101D3000DDFDF7E70C4A4FF4005111600B4A0C49E6
:101D4000D37040F203120A604A600A4A13700A4ACA
:101D500013700A4B1B680BB101221A7008BD00BF3B
:101D600034800440A08AFF1F84E100E000A0064008
:101D700040A00440228BFF1FA18AFF1F9C8AFF1FE7
:101D800038B50446094B1B7803F0FF05002BF9D149
:101D900020460121FEF790FF20462946FEF76CFF02
:101DA000034B53F83420034B1A6038BDA08AFF1F41
:101DB000284F0000248BFF1F0D4A38B5146814F417
:101DC00080624FF0000410D021280A4D0AD80A4A38
:101DD000012152F830302B60FEF76EFF2B681C702B
:101DE000012038BD2C60204638BD104638BD00BFEC
:101DF000348004409C8AFF1F284F00000E4B1B6854
:101E000013F4806316D012280C4B03D140F2023138
:101E10000B4A04E0142809D10A4A40F20231116049
:101E20005A7B42F001025A73012070475A7B02F03C
:101E3000FE025A73002070473480044000A0064020
:101E40000CA0044014C00440F8B51D4B1B685A0593
:101E5000064633D51B4B1B680BB101221A701A4B77
:101E60001C780134402C1F4628BF0024174D2B78C6
:101E7000A34218D1FEF7B2FE40280FDC144A1379B2
:101E80001B06F3D52B7813490133402B28BF0023C1
:101E9000C95CDBB2C9B2D1712B70E7E7FF28E5DD81
:101EA000FFF724FDE2E70B4BF6B21E550A4B012269
:101EB0001A70074BE4B2BC223C70DA70F8BD00BF68
:101EC00034800440248BFF1F288BFF1F238BFF1FB0
:101ED00000A00640A28AFF1FA08AFF1F274B1B6895
:101EE0005A052DE9F04707468A4644D5244B1B681E
:101EF0000BB101221A703D4607EB0A039D4237D20F
:101F0000DFF890801F4E98F8004096F8009001345A
:101F1000402C28BF00245FFA89F9A1451DD11A4B36
:101F2000BC22DA70FEF75AFE40280FDC164A1379FD
:101F30001B060FD5337815490133402B28BF0023EA
:101F4000C95CDBB2C9B2D171337003E0FF2801DD97
:101F5000FFF7CCFC33784B45E4D00C4B15F8012B44
:101F60001A550B4B0122E4B21A7088F80040C3E7FF
:101F7000054BBC22DA70BDE8F08700BF3480044016
:101F8000248BFF1F238BFF1F00A00640A28AFF1F88
:101F9000A08AFF1F288BFF1F08B5034B1B7813B1C6
:101FA000FFF7A4FCF9E708BDA08AFF1F064A074B0C
:101FB0001B781078DBB2C0B283422CBF3F3000F1F7
:101FC000FF30C01A704700BF238BFF1F288BFF1FF5
:101FD000054B1878054B1B78C0B2DBB2984238BF6E
:101FE0004030C01A704700BF228BFF1FA18AFF1F1D
:101FF00010B5104B10491A780B78D2B2DBB29A4266
:1020000014D00133402B28BF00230C48DCB2C05C45
:102010000C700B490968C0B251B19A4238BF4032C6
:10202000D31A1A2B04DC00230B7010BD4FF0FF30C5
:1020300010BD00BF228BFF1FA18AFF1FE28AFF1F76
:102040009C8AFF1F084B1A78084B1B78DBB29A4218
:1020500007D00133402B28BF0023054AD05CC0B213
:1020600070474FF0FF307047228BFF1FA18AFF1F80
:10207000E28AFF1F0C4B1B685B0514D50B4BDA780B
:1020800002F0CB02DA7040225A74DA7842F034025D
:10209000DA70074B1A78074BD2B21A70064B1B68DE
:1020A0000BB100221A7070473480044000A0064033
:1020B000A18AFF1F228BFF1F9C8AFF1F30B5374B61
:1020C0001A7912F0300F31D072B69A7D02F0FF000B
:1020D00022B9DA7940225A7462B627E062B6304AF1
:1020E000304913780978DBB2C9B214462B4AD57946
:1020F0005A1C402A28BF00228A42EDB202D02A4B45
:102100009D541346421E12F0FF00EFD1DAB2227046
:10211000264A126852B18B4236BFC1F14001C1EB71
:1021200003035B18272BC4BF012313701B4BD97803
:10213000C9B20C0620D51B7918061DD51C4B1D4AAB
:102140001D781378EDB2DBB21046AB420CD0134AC7
:102150000133402B1479184C28BF0023E45CE4B20F
:10216000D471127D072AF0D9DBB203700B4B1A79B8
:10217000120644BF7C22DA704B060ED5074B1A7943
:1021800012F0400F194608D00C4B00221A700C4B6D
:102190001B6803B11A703C23CB7030BD00A0064011
:1021A000228BFF1FA18AFF1FE28AFF1F9C8AFF1F4D
:1021B000288BFF1F238BFF1FA28AFF1FA08AFF1FF0
:1021C000248BFF1F194B1A6842F400621A60184AE8
:1021D00000231370174A1370174A1370174A1370AD
:1021E000174A1370174B40F213321A604FF45172B2
:1021F0005A60154BC0F344321A70C0F347125A703C
:1022000000F01F000422022198729A70D9745A7546
:1022100088221A743C22DA700C4B40221A70A3F206
:102220002B334FF400421A60704700BF34800440E3
:102230009A8BFF1F318BFF1FA08BFF1F9B8BFF1FF4
:10224000308BFF1F0CB0044000B006402FE400E0CC
:10225000134A937800F0030103F0EC030B434107AA
:1022600048BF43F01003937000F00F03042B0C4998
:1022700003D18B7943F040038B715379C20603F08D
:10228000EF03074A48BF43F0100353719379810667
:1022900003F0EF0348BF43F010039371704700BF92
:1022A00000B0064008B5114B1B681B0500D408BDE3
:1022B0000F4B1A7802F0FF0312B1FFF717FBF7E795
:1022C0000C4A4FF4004111600B4A0C49D37040F2A4
:1022D00003120A604A600A4A13700A4A13700A4BD2
:1022E0001B680BB101221A7008BD00BF3480044086
:1022F000308BFF1F84E100E000B006400CB00440CA
:102300009A8BFF1F318BFF1F2C8BFF1F38B50446A4
:10231000094B1B7803F0FF05002BF9D12046012162
:10232000FEF7CAFC20462946FEF7A6FC034B53F8ED
:102330003420034B1A6038BD308BFF1F284F00003C
:102340009C8BFF1F0D4A38B5146814F400624FF0DF
:10235000000410D021280A4D0AD80A4A012152F857
:1023600030302B60FEF7A8FC2B681C70012038BDB4
:102370002C60204638BD104638BD00BF3480044074
:102380002C8BFF1F284F00000B4B1B6813F40063BE
:1023900010D01728094B09D1094A40F202311160C7
:1023A0005A7B42F001025A73012070475A7B02F0B7
:1023B000FE025A73002070473480044000B006408B
:1023C00008B00440F8B51D4B1B681A05064633D506
:1023D0001B4B1B680BB101221A701A4B1C7801347D
:1023E000282C1F4628BF0024174D2B78A34218D154
:1023F000FEF7F4FB40280FDC144A13791B06F3D5D3
:102400002B7813490133282B28BF0023C95CDBB28A
:10241000C9B2D1712B70E7E7FF28E5DDFFF766FA57
:10242000E2E70B4BF6B21E550A4B01221A70074B1E
:10243000E4B2BC223C70DA70F8BD00BF34800440C6
:102440009C8BFF1FA08BFF1F9B8BFF1F00B00640C4
:10245000328BFF1F308BFF1F274B1B681A052DE99E
:10246000F04707468A4644D5244B1B680BB101222E
:102470001A703D4607EB0A039D4237D2DFF8908081
:102480001F4E98F8004096F800900134282C28BF81
:1024900000245FFA89F9A1451DD11A4BBC22DA70DC
:1024A000FEF79CFB40280FDC164A13791B060FD55C
:1024B000337815490133282B28BF0023C95CDBB2D0
:1024C000C9B2D171337003E0FF2801DDFFF70EFAC6
:1024D00033784B45E4D00C4B15F8012B1A550B4BB8
:1024E0000122E4B21A7088F80040C3E7054BBC2211
:1024F000DA70BDE8F08700BF348004409C8BFF1F7A
:102500009B8BFF1F00B00640328BFF1F308BFF1FDD
:10251000A08BFF1F08B5034B1B7813B1FFF7E6F93B
:10252000F9E708BD308BFF1F064A074B1B78107870
:10253000DBB2C0B283422CBF273000F1FF30C01A9B
:10254000704700BF9B8BFF1FA08BFF1F054B1878A8
:10255000054B1B78C0B2DBB2984238BF4030C01A7E
:10256000704700BF9A8BFF1F318BFF1F10B5104BB8
:1025700010491A780B78D2B2DBB29A4214D00133E8
:10258000402B28BF00230C48DCB2C05C0C700B4908
:102590000968C0B251B19A4238BF4032D31A1A2BDF
:1025A00004DC00230B7010BD4FF0FF3010BD00BFE6
:1025B0009A8BFF1F318BFF1F5A8BFF1F2C8BFF1F26
:1025C000084B1A78084B1B78DBB29A4207D00133CC
:1025D000402B28BF0023054AD05CC0B270474FF0A3
:1025E000FF3070479A8BFF1F318BFF1F5A8BFF1FE5
:1025F0000C4B1B681B0514D50B4BDA7802F0CB0291
:10260000DA7040225A74DA7842F03402DA70074BFA
:102610001A78074BD2B21A70064B1B680BB1002216
:102620001A7070473480044000B00640318BFF1FA1
:102630009A8BFF1F2C8BFF1F30B5374B1A7912F086
:10264000300F31D072B69A7D02F0FF0022B9DA79EC
:1026500040225A7462B627E062B6304A3049137895
:102660000978DBB2C9B214462B4AD5795A1C402AE4
:1026700028BF00228A42EDB202D02A4B9D54134655
:10268000421E12F0FF00EFD1DAB22270264A126821
:1026900052B18B4236BFC1F14001C1EB03035B185D
:1026A000272BC4BF012313701B4BD978C9B20C066A
:1026B00020D51B7918061DD51C4B1D4A1D78137893
:1026C000EDB2DBB21046AB420CD0134A0133282BDB
:1026D0001479184C28BF0023E45CE4B2D471127D55
:1026E000072AF0D9DBB203700B4B1A79120644BFEC
:1026F0007C22DA704B060ED5074B1A7912F0400F88
:10270000194608D00C4B00221A700C4B1B6803B101
:102710001A703C23CB7030BD00B006409A8BFF1F6F
:10272000318BFF1F5A8BFF1F2C8BFF1FA08BFF1FAE
:102730009B8BFF1F328BFF1F308BFF1F9C8BFF1F5C
:10274000174B1A6842F480521A60164A002313701D
:10275000154A1370154A1370154A1370154A1370F1
:10276000154A40F2133111604FF451715160134A10
:10277000C0F344311170C0F3471100F01F005170D5
:102780009072937013742C23D3700D4B40226FF40E
:102790004B711A700B444FF400321A60704700BF3F
:1027A00034800440128CFF1FA98BFF1F188CFF1F61
:1027B000138CFF1FA88BFF1F08C0044000C00640F9
:1027C00031E400E0134A937800F0030103F0EC03D6
:1027D0000B43410748BF43F01003937000F00F0311
:1027E000042B0C4903D18B7943F040038B7153794F
:1027F000C20603F0EF03074A48BF43F010035371CA
:102800009379810603F0EF0348BF43F010039371FF
:10281000704700BF00C0064008B5114B1B68DB04C1
:1028200000D408BD0F4B1A7802F0FF0312B1FFF776
:102830005DF8F7E70C4A4FF4003111600B4A0C4980
:10284000D37040F203120A604A600A4A13700A4ABF
:1028500013700A4B1B680BB101221A7008BD00BF30
:1028600034800440A88BFF1F84E100E000C00640D4
:1028700008C00440128CFF1FA98BFF1FA48BFF1FF1
:1028800038B50446094B1B7803F0FF05002BF9D13E
:1028900020460121FEF710FA20462946FEF7ECF902
:1028A000034B53F83420034B1A6038BDA88BFF1F2D
:1028B000284F0000148CFF1F0D4A38B5146814F41B
:1028C00080524FF0000410D021280A4D0AD80A4A3D
:1028D000012152F830302B60FEF7EEF92B681C70A6
:1028E000012038BD2C60204638BD104638BD00BFE1
:1028F00034800440A48BFF1F284F00000B4B1B6843
:1029000013F4805310D00E28094B09D1094A40F224
:10291000023111605A7B42F001025A730120704764
:102920005A7B02F0FE025A73002070473480044044
:1029300000C0064004C00440F8B51D4B1B68DA0413
:10294000064633D51B4B1B680BB101221A701A4B7C
:102950001C780134282C1F4628BF0024174D2B78E3
:10296000A34218D1FEF73AF940280FDC144A137934
:102970001B06F3D52B7813490133282B28BF0023DE
:10298000C95CDBB2C9B2D1712B70E7E7FF28E5DD86
:10299000FEF7ACFFE2E70B4BF6B21E550A4B0122E5
:1029A0001A70074BE4B2AC223C70DA70F8BD00BF7D
:1029B00034800440148CFF1F188CFF1F138CFF1FE2
:1029C00000C00640AA8BFF1FA88BFF1F38B5044626
:1029D0004518AC4204D014F8010BFFF7ADFFF8E73F
:1029E00038BDFFFF08B5034B1B7813B1FEF77EFF20
:1029F000F9E708BDA88BFF1F064A074B1B78107824
:102A0000DBB2C0B283422CBF273000F1FF30C01AC6
:102A1000704700BF138CFF1F188CFF1F054B1878E1
:102A2000054B1B78C0B2DBB2984238BF4030C01AA9
:102A3000704700BF128CFF1FA98BFF1F10B5104BF2
:102A400010491A780B78D2B2DBB29A4214D0013313
:102A5000402B28BF00230C48DCB2C05C0C700B4933
:102A60000968C0B251B19A4238BF4032D31A1A2B0A
:102A700004DC00230B7010BD4FF0FF3010BD00BF11
:102A8000128CFF1FA98BFF1FD28BFF1FA48BFF1F70
:102A9000084B1A78084B1B78DBB29A4207D00133F7
:102AA000402B28BF0023054AD05CC0B270474FF0CE
:102AB000FF307047128CFF1FA98BFF1FD28BFF1FA7
:102AC000054B1A78054BD2B21A70054B1B680BB137
:102AD00000221A70704700BFA98BFF1F128CFF1FC6
:102AE000A48BFF1F10B5294B1A79920620D5284ACE
:102AF000D879137827490133402B097828BF002360
:102B00008B42C0B203D02449C854D9B21170234AB1
:102B1000116869B1224A1278D2B2934236BFC2F12B
:102B20004002C2EB03039B18272BC4BF01230B7089
:102B3000164AD178C9B20C0616D51379180613D5E2
:102B4000184B17481C780378DBB29C4202D16C23E7
:102B5000D37009E00133282B28BF0023124CE45C1A
:102B6000DBB2E4B2D47103704B060ED5074B1A7971
:102B700012F0400F194608D00C4B00221A700C4B73
:102B80001B6803B11A702C23CB7010BD00C0064027
:102B9000128CFF1FA98BFF1FD28BFF1FA48BFF1F5F
:102BA000138CFF1F188CFF1FAA8BFF1FA88BFF1F02
:102BB000148CFF1F1FB572B6154B70221A70154A80
:102BC000412111700F2102F8011C80221A701A781D
:102BD0001206FCD5104B186862B6104B984298BF8D
:102BE0000A2301AC98BF584321460A22FEF716F883
:102BF0000023E15C0A4A29B102EB430001330A2BAE
:102C00004180F6D101335B00137004B010BD00BFEA
:102C10000000024007000240080002407F96980032
:102C2000F887FF1F2DE9F04FDFF8B8A28BB01D46E3
:102C300080468946144600F073F99AF90030013352
:102C400006460F4604D02046294600F06FFF20B903
:102C5000304639460BB0BDE8F08F4046494600F09B
:102C600065FF834600282CD12046294600220023F8
:102C700001F0D0FC0028EBD0944B9AF90010944856
:102C8000CDF820B000220126CDE906234B1CCDE96A
:102C90000289CDE90445009601900DD002290BD0A0
:102CA000684600F06BFF002800F09580089B1BB180
:102CB00002F044F8089B0360DDE906010BB0BDE8B3
:102CC000F08F002200234046494601F0A3FCF8B1F2
:102CD000204629460022002301F09CFC8346002860
:102CE0004DD07B4A9AF900300192CDE9044501218B
:102CF000002200240025CDE90289CDE90645009196
:102D00000892002BCCD0714B0022CDE90623D3E7EB
:102D10003046394600F004FF8346002860D0002288
:102D200000233046394601F075FC002890D040461B
:102D3000494600F0F5FE00288AD02046294600F0DA
:102D4000EFFE002884D09AF90030614A0192CDE963
:102D500004450421002200240025022BCDE902892C
:102D6000CDE906450091089200F08280684600F0A7
:102D700005FF00287CD0089B002B9DD098E72046BB
:102D8000294600F0CDFE00283FF462AF20462946D8
:102D90000022002301F048FC00283FF459AF4C4BBF
:102DA0009AF80010CDF820B001228DE80C00CDE992
:102DB0000289CDE904450022002934D10023CDE960
:102DC0000623684600F0DAFE0028D4D101F0B6FFF1
:102DD00021230360CFE701F0B1FF2123036065E702
:102DE0004046494600F09CFE002898D020462946DF
:102DF00000F096FE002892D03046394600F096FE4C
:102E0000B8B9334B9AF8006008900122CDE90289E5
:102E1000CDE904458DE80C00002E2ED100240025BC
:102E2000CDE90645CDE72B4B0229CDE90623CDD0D0
:102E3000C7E7274A9AF90030CDF820B003218DE882
:102E40000600CDE90289CDE9044540464946002205
:102E5000F3B9214F4FF060460023CDE9066701F03A
:102E6000E3FB002840D19AF90030022B7FF47EAFBB
:102E700001F064FF222303607DE700200021024669
:102E80000B4601F089FA022ECDE906019ED098E7A3
:102E9000124F00260023CDE9066701F0C5FB00288C
:102EA000E1D000220E4B2046294601F04BF90446A2
:102EB0000D4600F06BFE22462B4601F0ABFB0028CE
:102EC000D1D1044B0022CDE90623CCE70000F03F2E
:102ED000B85100000000F0FFFFFFEF470000F07F57
:102EE0000000E03F0E88FF1F00220A4B20462946C3
:102EF00001F028F904460D4600F048FE22462B4614
:102F000001F088FB0028AED1034B4FF06042CDE9C1
:102F10000623A8E70000E03FFFFFEFC7FFFFFFFF2A
:102F20002DE9F04F23F0004B91B089460F465BEA44
:102F30000201CDE9022314461D46804606462ED0E6
:102F4000634B29F0004A9A4522DC1FD0604B9B4519
:102F50001EDC77D0002F78DB0022049264BB5C4B30
:102F60009B4500F091805B4B9B4565D0B5F1804F50
:102F700000F0F783584B9D421ED1002F1CDB4046CA
:102F8000494611B0BDE8F04F00F006BD0028DDD085
:102F90000AF1404A0AF5801A5AEA060A04D14D4954
:102FA000002011B0BDE8F08F4C4811B0BDE8F04FE3
:102FB00000F0E6BD002104914046494600F0ACFD1A
:102FC000E6B9BAF1000F04D0424B27F040429A42D2
:102FD00014D1002DC0F20584002FE2DA0AF1404A34
:102FE000DDF810B00AF5801A5BEA0A0B5ED0049A8D
:102FF000012AD6D101F100431946D2E7FB0F03F1B4
:10300000FF3C049B53EA0C034ED0354B9B456DDDD2
:1030100003F104739B4540F3EC83324B9A4540F334
:103020009A83002D40F39A8327A1D1E9000102463B
:103030000B4601F087F8B4E7002DC0F24884404603
:103040004946AEE7002C85D0A2E7274B9B4536DCEE
:10305000A3F154739B4540F38B834FEA2B5340F20B
:103060001342934240F34984C3F58663033324FA41
:1030700003F202FA03F3A3427FF46EAF02F00102FF
:10308000C2F10202049269E70AF1404303F580139A
:10309000334384D0134B9A4540F39B83002DC0F2F9
:1030A0005D83DDE902017CE74046494602460B4666
:1030B00000F094FE02460B4601F06EF971E7022320
:1030C00004934BE7AFF300809C7500883CE4377EA7
:1030D0000000F07F0000F03F0000E03FF0510000F2
:1030E0000000E041FFFFEF3FFFFF3F43BAF5801FC5
:1030F00080F2EB83AA4BCDF804C0002201F022F845
:10310000DDF804C08A466FF034034FEA2A55A54A19
:10311000CAF3130AA5F2FF354AF07F541D449245C5
:103120000F9544F4401440F3CD839F4B9A4540F3F0
:10313000FA83DDF83CA000250AF1010ACDF83CA095
:10314000A4F580142B46994ACDF804C0DB000E93F9
:103150001344D3E90067214632463B46CDE90A01D4
:1031600000F03CFE3246804689463B46DDE90A01D6
:1031700000F036FE02460B4600208D4901F00CF9A6
:10318000CDE90C01DDE90C234046494600F0DAFFA9
:10319000CDE906016110DDE906AB41F0005101F512
:1031A00000214B190021CDE908AB0891DDE908ABFE
:1031B00000225046594614461D4600F0C3FF024601
:1031C0000B464046494600F009FE32468046894695
:1031D0003B462046294600F001FE02460B46DDE94B
:1031E0000A0100F0FBFD02460B465046594600F02E
:1031F000A9FF02460B464046494600F0EFFDDDE9D7
:103200000C2300F09FFF06460F46DDE9060102464B
:103210000B4600F097FF02460B4604460D4600F0B1
:1032200091FF4FA3D3E900238046894620462946D3
:1032300000F088FF4CA3D3E9002300F0D1FD224623
:103240002B4600F07FFF4AA3D3E9002300F0C8FD1E
:1032500022462B4600F076FF47A3D3E9002300F077
:10326000BFFD22462B4600F06DFF45A3D3E90023A6
:1032700000F0B6FD22462B4600F064FF42A3D3E9DE
:10328000002300F0ADFD02460B464046494600F0E3
:1032900059FFDDE9062304460D465046594600F025
:1032A0009FFD32463B4600F04DFF22462B4600F084
:1032B00097FD5246804689465B465046594600F087
:1032C00041FF00223B4BCDE90A0100F089FD424657
:1032D0004B4600F085FD08980D46044622462B46D5
:1032E0005046594600F02EFF224682468B462B461A
:1032F0003046394600F026FF002206460F4620469B
:1033000029462C4B00F06AFDDDE90A2300F066FD3A
:1033100002460B464046494600F060FDDDE90623C3
:1033200000F010FF02460B463046394600F058FDCB
:103330008046894642464B465046594600F050FD6D
:10334000089813A3D3E9002304460D4600F0FAFEC3
:1033500011A3D3E90023CDE90601204629462BE03D
:10336000EF4E454A287ECA3F65DBC9934A86CD3F6A
:1033700001411DA96074D13F4D268F515555D53F50
:10338000FFAB6FDBB66DDB3F033333333333E33FE8
:10339000000000E009C7EE3FF5015B14E02F3EBEE0
:1033A000000040438E98030079B60B00E051000006
:1033B0000000F03F0000084000F0C4FE5246064600
:1033C0000F465B462046294600F008FD02460B46A4
:1033D0004046494600F002FD9FA3D3E9002300F0D8
:1033E000B1FE02460B463046394600F0F9FCDDF8E6
:1033F00038A0AB4B5344D3E9002300F0F1FC064660
:103400000F980F4600F038FEA64B5344D3E900ABAB
:1034100004460D4632463B46DDE9060100F0E0FC7D
:1034200052465B4600F0DCFC22462B4600F0D8FCFE
:10343000089822462B468046894600F0CFFC52462B
:103440005B4600F0CBFCDDE9062300F0C7FC02463A
:103450000B463046394600F0C1FCDDF804C0824618
:103460008B4604994B1E53EA0C030CBF8E4B8F4BBB
:103470000022CDE90823DDE90223CDE9042300235E
:103480000493DDE90445DDE902012B46224600F004
:10349000A5FC42464B4600F055FE524606460F46F6
:1034A0005B46DDE9020100F04DFE02460B46304668
:1034B000394600F095FC42464B4682468B462046F4
:1034C000294600F03FFE06460F463B465046594609
:1034D000324600F085FC764B9942804689460D467F
:1034E00040F34A8101F13F4303F5E003034340F019
:1034F000F6815BA3D3E900235046594600F070FCE7
:103500003246CDE902013B464046494600F066FCA2
:1035100002460B46DDE9020101F0A4F8002840F064
:10352000DE81CC464FEA2C53A3F2FE334FF48010D9
:1035300018412844C0F30A515E4AA1F2FF3342FA0F
:1035400003FEC1F58261C0F3130420EA0E030331C8
:1035500044F4801040FA01F1002D0491BCBF4942AF
:10356000049100223046394600F038FC06460F46EA
:103570003246504659463B4600F032FC049A12054A
:103580000292002438A3D3E9002320460D4600F020
:10359000D9FD3246804689463B462046294600F002
:1035A0001DFC02460B465046594600F017FC30A35E
:1035B000D3E9002300F0C6FD2FA3D3E9002306467C
:1035C0000F462046294600F0BDFD02460B46304618
:1035D000394600F005FC06460F4632463B4640465B
:1035E000494600F0FDFB42464B4604460D4600F0BE
:1035F000F5FB02460B463046394600F0EFFB22460B
:1036000082468B4620462B46294600F09BFD1CA394
:10361000D3E9002306460F4600F094FD1AA3D3E930
:10362000002300F0DBFB32463B4600F08BFD18A385
:10363000D3E9002300F0D4FB32463B4600F082FD84
:1036400015A3D3E9002300F0C9FB32463B4600F046
:1036500079FD31E0AFF30080FD033ADC09C7EE3FAE
:10366000FE822B654715973C00000000432EE63F85
:10367000EF39FAFE422EE63F396CA80C615C20BEA1
:10368000D0A4BE726937663EF16BD2C541BDBB3E68
:103690002CDE25AF6A56113F93BDBE166CC1663F46
:1036A000D0510000C05100000000F0BF0000F03F0A
:1036B000FFFF8F40FFFF0F00A3A3D3E9002300F01B
:1036C0008FFB32463B4600F03DFD02460B4620464E
:1036D000294600F083FB06460F4632463B4620460D
:1036E000294600F02FFD00228046894630463946A3
:1036F0004FF0804300F072FB02460B4640464946BD
:1037000000F04AFE524606460F4620465B462946D2
:1037100000F018FD52465B4600F062FB02460B4685
:103720003046394600F05AFB22462B4600F056FB45
:1037300002460B460020924900F050FB029C0C44CC
:10374000B4F5801F0246C0F2F2802346DDE908018D
:1037500000F0F8FC25E4002DFFF666AC0020002107
:103760001FE44046494642464B4600F0EBFC18E455
:1037700000210491FFF7F2BB824B21F0004C9C45E5
:1037800040F3CA8001F17D5303F53C1303F5505318
:10379000034310D132463B46CDF804C000F01EFB77
:1037A00002460B465046594600F048FFDDF804C07B
:1037B00000283FF4B7AEDDE9080165A3D3E9002393
:1037C00000F0C0FC62A3D3E9002300F0BBFCFFF7CC
:1037D000E8BB002DC2DA039B029803F10041FFF71A
:1037E000E0BB02460B460020654900F0D5FDFFF71F
:1037F000F3BB654B9A45AEDD614B9A453FF711AC83
:1038000000225F4BCDF804C000F0E8FA52A3D3E9E0
:10381000002304460D4600F095FC51A3D3E9002394
:1038200006460F462046294600F08CFC224682467A
:103830008B462B462046294600F084FC0022804619
:10384000894620462946514B00F07CFC02460B4637
:1038500045A1D1E9000100F0C1FA22462B4600F053
:1038600071FC02460B460020494900F0B7FA0246B7
:103870000B464046494600F065FC3DA3D3E90023D2
:1038800000F060FC02460B465046594600F0A6FA8E
:1038900004460D4622462B463046394600F0A0FA33
:1038A000002032463B468046894600F097FA0246A1
:1038B0000B462046294600F091FADDF804C0824606
:1038C0008B46CEE500252B463DE400231DE4424611
:1038D0004B4600202A4900F05FFDFFF762BBDDE99F
:1038E000080125A3D3E9002300F02CFC22A3D3E98F
:1038F000002300F027FCFFF754BB002C7FF45AABE9
:10390000C3F5826303334BFA03F202FA03F35B4518
:1039100013D00494FFF727BB1D4B9C453FF702AE25
:10392000049B02932DE64FF4802501230BE4049AB7
:1039300000F0BAF902460B4608E702F00102C2F1B4
:1039400002020492FFF70FBB3E5555555555C53F32
:1039500059F3F8C21F6EA501000000604715F73F3C
:1039600044DF5DF80BAE543E555555555555D53F82
:10397000FE822B654715F73F9C7500883CE4377E37
:103980000000F03FFFCB9040FEFFEF3F0000D03F34
:103990000000E03FAFF3008021F0004C2DE9F84338
:1039A0004FEA1C5CDFF86C814FEA0C5CC4450646AC
:1039B0000F460B46024600F08F8000296FDD0F1581
:1039C00078D0A7F2FF37C3F31303F90743F480134A
:1039D00060D4D10F4FF0000C01EB43037F10520075
:1039E000654616204FF400116C189C424FEAD276BF
:1039F0004FEA420202DC1B1B65188C44013806EBBF
:103A000043034FEA5101EFD1804620264FF0004199
:103A100009E023D0D40F013E4FEA510104EB4303E8
:103A20004FEA42021ED0AB4201EB0804F1DD04F084
:103A30000049B9F1004F04EB010809D0A9465B1B0E
:103A4000944288BF03F1FF33121B08444D46E1E75F
:103A5000B8F1000FF2DB05F10109F0E79442E6D975
:103A60001D46D7E71A4304D0431C41D000F00103A0
:103A7000184446084FEA6C031CF0010F03F17F5312
:103A800003F5001318BF46F0004603EB075130461C
:103A9000BDE8F883D10F01EB4303520099E721F011
:103AA0000043034322D051BB0F46D30A153F5205B2
:103AB000002BFAD013F480111DD15B00D80201F164
:103AC0000101FAD5C1F10100C1F1200422FA04F488
:103AD000234307448A4074E702460B4600F032FB5A
:103AE00032463B4600F07CF9BDE8F883BDE8F88338
:103AF0000CF1010CBEE7202401200021E6E702467C
:103B00000B4600F06BF902460B4600F045FCBDE8A1
:103B1000F88300BF0000F07F21F00041704700BF34
:103B200041F0004101F58010C00F704731F00043B3
:103B300010B408D00F4AA3F5801494420AD8042088
:103B40005DF8044B704700280CBF022003205DF88D
:103B5000044B7047B3F5801F01D20320F7E7064AF4
:103B6000934201D00020F2E7D0F1010038BF0020DD
:103B7000EDE700BFFFFFDF7F0000F07F0020704710
:103B800000200149704700BF0000F87F2DE9F04395
:103B9000C1F30A57A7F2FF36132E83B002460B4635
:103BA000894684464FEAD17832DC002E4DDB3B4912
:103BB000314101EA030010432FD0490801EA030C08
:103BC0005CEA020C0DD04FF48029132E23EA010188
:103BD00049FA06F641EA060914BF4FF0000C4FF00F
:103BE000004C2F4B03EBC8084F46D8E900896246CA
:103BF0003B464046494600F0F3F8CDE90001424615
:103C00004B46DDE9000100F0E9F803B0BDE8F083C0
:103C1000332E07DDB6F5806F3DD01046194603B050
:103C2000BDE8F083A7F213474FF0FF31F94001429E
:103C3000F3D049080142D4D04FF0804C20EA010172
:103C40004CFA07F741EA070CCBE721F000410143AA
:103C5000E3D0C3F31301124C0143484204EBC80400
:103C6000D4E900450843000B590C490400F4002036
:103C700040EA01032046294600F0B2F8CDE90001F0
:103C80002B462246DDE9000100F0A8F821F00043B0
:103C900043EAC871C3E700F0A3F8C0E7FFFF0F00D5
:103CA000F8510000FFFFFFFFC1F30A532DE9F04177
:103CB000904606460F460A461BBB21F000430343CD
:103CC00034D03B4B002200F03DFA3A4B9845064673
:103CD0000F463BDBC1F30A53363B0A46434440F2EE
:103CE000FE718B4216DD32463B462DA1D1E9000123
:103CF00000F066F82AA3D3E9002300F023FABDE818
:103D0000F08140F2FF74A34227D0434440F2FE7199
:103D10008B42E8DC002B0BDD22F0FF4222F4E002B4
:103D200042EA035730463946BDE8F081BDE8F081EC
:103D300013F1350F17DA4CF25033984532463B46B3
:103D400020DC19A1D1E9000100F03AF816A3D3E96B
:103D5000002300F0F7F9BDE8F08102460B4600F0C1
:103D60003FF8BDE8F08122F0FF4222F4E002363352
:103D700042EA03573046394600220F4B00F0E2F981
:103D8000BDE8F08106A1D1E9000100F019F804A313
:103D9000D3E9002300F0D6F9BDE8F081AFF300804D
:103DA0009C7500883CE4377E59F3F8C21F6EA5016C
:103DB00000005043B03CFFFF0000903CAFF3008098
:103DC00030B403F0004321F0004243EA020130BC6A
:103DD000704700BF81F0004102E000BF83F0004364
:103DE00030B54FEA41044FEA430594EA050F08BF96
:103DF00090EA020F1FBF54EA000C55EA020C7FEA5A
:103E0000645C7FEA655C00F0E2804FEA5454D4EBD6
:103E10005555B8BF6D420CDD2C4480EA020281EAA0
:103E2000030382EA000083EA010180EA020281EAD8
:103E30000303362D88BF30BD11F0004F4FEA01312A
:103E40004FF4801C4CEA113102D0404261EB410139
:103E500013F0004F4FEA03334CEA133302D05242BF
:103E600063EB430394EA050F00F0A780A4F101047B
:103E7000D5F1200E0DDB02FA0EFC22FA05F28018B5
:103E800041F1000103FA0EF2801843FA05F359419B
:103E90000EE0A5F120050EF1200E012A03FA0EFC1A
:103EA00028BF4CF0020C43FA05F3C01851EBE37144
:103EB00001F0004507D54FF0000EDCF1000C7EEB61
:103EC00000006EEB0101B1F5801F1BD3B1F5001F9F
:103ED0000CD349085FEA30004FEA3C0C04F10104BE
:103EE0004FEA445212F5800F80F09A80BCF1004FE7
:103EF00008BF5FEA500C50F1000041EB045141EA69
:103F0000050130BD5FEA4C0C404141EB010111F469
:103F1000801FA4F10104E9D191F0000F04BF014614
:103F20000020B1FA81F308BF2033A3F10B03B3F1F2
:103F300020020CDA0C3208DD02F1140CC2F10C0282
:103F400001FA0CF021FA02F10CE002F11402D8BFE0
:103F5000C2F1200C01FA02F120FA0CFCDCBF41EAAC
:103F60000C019040E41AA2BF01EB0451294330BD7B
:103F70006FEA04041F3C1CDA0C340EDC04F1140458
:103F8000C4F1200220FA04F001FA02F340EA03002F
:103F900021FA04F345EA030130BDC4F10C04C4F175
:103FA000200220FA02F001FA04F340EA0300294655
:103FB00030BD21FA04F0294630BD94F0000F83F49F
:103FC000801306BF81F480110134013D4EE77FEA82
:103FD000645C18BF7FEA655C29D094EA050F08BFCE
:103FE00090EA020F05D054EA000C04BF19461046AF
:103FF00030BD91EA030F1EBF0021002030BD5FEAF3
:10400000545C05D14000494128BF41F0004130BD1A
:1040100014F580043CBF01F5801130BD01F000456E
:1040200045F0FE4141F470014FF0000030BD7FEAE1
:10403000645C1ABF194610467FEA655C1CBF0B46DC
:10404000024650EA013406BF52EA033591EA030FF3
:1040500041F4002130BD00BF90F0000F04BF0021EB
:10406000704730B54FF4806404F132044FF000051E
:104070004FF0000150E700BF90F0000F04BF002197
:10408000704730B54FF4806404F1320410F00045FD
:1040900048BF40424FF000013EE700BF42004FEAF8
:1040A000E2014FEA31014FEA02701FBF12F07F4375
:1040B00093F07F4F81F06051704792F0000F14BF72
:1040C00093F07F4F704730B54FF4607401F00045B6
:1040D00021F0004120E700BF50EA010208BF70470D
:1040E00030B54FF000050AE050EA010208BF704702
:1040F00030B511F0004502D5404261EB41014FF46B
:10410000806404F132045FEA915C3FF4DCAE4FF06E
:1041100003025FEADC0C18BF03325FEADC0C18BF55
:10412000033202EBDC02C2F1200300FA03FC20FAA6
:1041300002F001FA03FE40EA0E0021FA02F11444F3
:10414000C1E600BF70B54FF0FF0C4CF4E06C1CEA08
:1041500011541DBF1CEA135594EA0C0F95EA0C0F7D
:1041600000F0DEF82C4481EA030621EA4C5123EAF0
:104170004C5350EA013518BF52EA033541F480111F
:1041800043F4801338D0A0FB02CE4FF00005E1FBD2
:1041900002E506F00042E0FB03E54FF00006E1FB1C
:1041A00003569CF0000F18BF4EF0010EA4F1FF045F
:1041B000B6F5007F64F5407404D25FEA4E0E6D419F
:1041C00046EB060642EAC62141EA55514FEAC520B0
:1041D00040EA5E504FEACE2EB4F1FD0C88BFBCF52C
:1041E000E06F1ED8BEF1004F08BF5FEA500E50F1DD
:1041F000000041EB045170BD06F0004646EA0101A3
:1042000040EA020081EA0301B4EB5C04C2BFD4EBD4
:104210000C0541EA045170BD41F480114FF0000ECD
:10422000013C00F3AB8014F1360FDEBF002001F03B
:10423000004170BDC4F10004203C35DA0C341BDCB5
:1042400004F11404C4F1200500FA05F320FA04F087
:1042500001FA05F240EA020001F0004221F00041BB
:1042600010EBD37021FA04F642EB06015EEA430E2E
:1042700008BF20EAD37070BDC4F10C04C4F120055E
:1042800000FA04F320FA05F001FA04F240EA020011
:1042900001F0004110EBD37041F100015EEA430EE2
:1042A00008BF20EAD37070BDC4F1200500FA05F202
:1042B0004EEA020E20FA04F301FA05F243EA020381
:1042C00021FA04F001F0004121FA04F220EA020090
:1042D00000EBD3705EEA430E08BF20EAD37070BDD6
:1042E00094F0000F0FD101F00046400041EB0101B6
:1042F00011F4801F08BF013CF7D041EA060195F098
:10430000000F18BF704703F00046520043EB030351
:1043100013F4801F08BF013DF7D043EA060370473E
:1043200094EA0C0F0CEA135518BF95EA0C0F0CD049
:1043300050EA410618BF52EA4306D1D181EA03018F
:1043400001F000414FF0000070BD50EA410606BF89
:104350001046194652EA430619D094EA0C0F02D1CE
:1043600050EA013613D195EA0C0F05D152EA033613
:104370001CBF104619460AD181EA030101F0004131
:1043800041F0FE4141F470014FF0000070BD41F07A
:10439000FE4141F4780170BD70B54FF0FF0C4CF454
:1043A000E06C1CEA11541DBF1CEA135594EA0C0F73
:1043B00095EA0C0F00F0A7F8A4EB050481EA030EC0
:1043C00052EA03354FEA013100F088804FEA0333A7
:1043D0004FF0805545EA131343EA12634FEA022275
:1043E00045EA111545EA10654FEA00260EF0004136
:1043F0009D4208BF964244F1FD0404F5407402D288
:104400005B084FEA3202B61A65EB03055B084FEA18
:1044100032024FF480104FF4002CB6EB020E75EB15
:10442000030E22BFB61A754640EA0C005B084FEA3D
:104430003202B6EB020E75EB030E22BFB61A7546BA
:1044400040EA5C005B084FEA3202B6EB020E75EB05
:10445000030E22BFB61A754640EA9C005B084FEA7D
:104460003202B6EB020E75EB030E22BFB61A75468A
:1044700040EADC0055EA060E18D04FEA051545EA79
:1044800016754FEA06164FEAC30343EA52734FEA22
:10449000C2025FEA1C1CC0D111F4801F0BD141EA9B
:1044A00000014FF000004FF0004CB6E711F4801F00
:1044B00004BF01430020B4F1FD0C88BFBCF5E06FE0
:1044C0003FF6AFAEB5EB030C04BFB6EB020C5FEAF0
:1044D000500C50F1000041EB045170BD0EF0004E45
:1044E0004EEA113114EB5C04C2BFD4EB0C0541EA77
:1044F000045170BD41F480114FF0000E013C90E674
:1045000045EA060E8DE60CEA135594EA0C0F08BF37
:1045100095EA0C0F3FF43BAF94EA0C0F0AD150EA36
:1045200001347FF434AF95EA0C0F7FF425AF1046C9
:1045300019462CE795EA0C0F06D152EA03353FF4F1
:10454000FDAE1046194622E750EA410618BF52EA6E
:1045500043067FF4C5AE50EA41047FF40DAF52EA42
:1045600043057FF4EBAE12E74FF0FF3C06E000BFDF
:104570004FF0010C02E000BF4FF0010C4DF804CDEC
:104580004FEA410C7FEA6C5C4FEA430C18BF7FEAAC
:104590006C5C1BD001B050EA410C0CBF52EA430CDA
:1045A00091EA030F02BF90EA020F0020704710F15A
:1045B000000F91EA030F58BF994208BF90422CBFE9
:1045C000D8176FEAE37040F0010070474FEA410CE2
:1045D0007FEA6C5C02D150EA013C07D14FEA430C00
:1045E0007FEA6C5CD6D152EA033CD3D05DF8040B71
:1045F000704700BF8446104662468C4619466346A3
:1046000000E000BF01B5FFF7B7FF002848BF10F179
:10461000000F01BD4DF808EDFFF7F4FF0CBF0120BE
:1046200000205DF808FB00BF4DF808EDFFF7EAFF3A
:1046300034BF012000205DF808FB00BF4DF808EDF5
:10464000FFF7E0FF94BF012000205DF808FB00BFEA
:104650004DF808EDFFF7CEFF94BF012000205DF874
:1046600008FB00BF4DF808EDFFF7C4FF34BF012081
:1046700000205DF808FB00BF4FEA410212F500126E
:1046800015D211D56FF47873B3EB625212D94FEA99
:10469000C12343F0004343EA505311F0004F23FA83
:1046A00002F018BF404270474FF00000704750EAD8
:1046B000013005D111F0004008BF6FF00040704795
:1046C0004FF00000704700BF4FEA4102B2F1E043F3
:1046D00024BFB3F5001CDCF1FE5C0DD901F0004CE9
:1046E0004FEAC0024CEA5070B2F1004F40EB830039
:1046F00008BF20F00100704711F0804F21D113F165
:104700003872BCBF01F00040704741F480114FEA9D
:104710005252C2F11802C2F1200C10FA0CF320FA26
:1047200002F018BF40F001004FEAC1234FEAD32343
:1047300003FA0CFC40EA0C0023FA02F34FEA4303AD
:10474000CCE77FEA625307D150EA01331EBF4FF036
:10475000FE4040F44000704701F0004040F0FE4051
:1047600040F40000704700BF80F0004002E000BF4E
:1047700081F0004142001FBF5FEA410392EA030F4C
:104780007FEA226C7FEA236C6AD04FEA1262D2EB96
:104790001363C1BFD218414048404140B8BF5B429B
:1047A000192B88BF704710F0004F40F4000020F034
:1047B0007F4018BF404211F0004F41F4000121F04A
:1047C0007F4118BF494292EA030F3FD0A2F1010294
:1047D00041FA03FC10EB0C00C3F1200301FA03F1D2
:1047E00000F0004302D5494260EB4000B0F5000FF5
:1047F00013D3B0F1807F06D340084FEA310102F1B4
:104800000102FE2A51D2B1F1004F40EBC25008BF65
:1048100020F0010040EA03007047490040EB00002F
:1048200010F4000FA2F10102EDD1B0FA80FCACF15E
:10483000080CB2EB0C0200FA0CF0AABF00EBC2505D
:1048400052421843BCBFD0401843704792F0000F4B
:1048500081F4000106BF80F400000132013BB5E79E
:104860004FEA41037FEA226C18BF7FEA236C21D014
:1048700092EA030F04D092F0000F08BF0846704779
:1048800090EA010F1CBF0020704712F07F4F04D147
:10489000400028BF40F00040704712F100723CBF5A
:1048A00000F50000704700F0004343F0FE4040F484
:1048B000000070477FEA226216BF08467FEA236342
:1048C0000146420206BF5FEA412390EA010F40F42D
:1048D000800070474FF0000304E000BF10F0004379
:1048E00048BF40425FEA000C08BF704743F0964360
:1048F00001464FF000001CE050EA010208BF70477B
:104900004FF000030AE000BF50EA010208BF704701
:1049100011F0004302D5404261EB41015FEA010C16
:1049200002BF84460146002043F0B64308BFA3F10E
:104930008053A3F50003BCFA8CF2083AA3EBC253F0
:1049400010DB01FA02FC634400FA02FCC2F120020F
:10495000BCF1004F20FA02F243EB020008BF20F046
:104960000100704702F1200201FA02FCC2F12002AC
:1049700050EA4C0021FA02F243EB020008BF20EAA1
:10498000DC7070474FF0FF0C1CEAD0521EBF1CEACF
:10499000D15392EA0C0F93EA0C0F6FD01A4480EABD
:1049A000010C400218BF5FEA41211ED04FF00063A6
:1049B00043EA501043EA5111A0FB01310CF00040D2
:1049C000B1F5000F3EBF490041EAD3715B0040EAF8
:1049D000010062F17F02FD2A1DD8B3F1004F40EBC8
:1049E000C25008BF20F00100704790F0000F0CF09B
:1049F000004C08BF49024CEA502040EA51207F3A5F
:104A0000C2BFD2F1FF0340EAC250704740F4000039
:104A10004FF00003013A5DDC12F1190FDCBF00F02A
:104A200000407047C2F10002410021FA02F1C2F1D8
:104A3000200200FA02FC5FEA310040F1000053EA74
:104A40004C0308BF20EADC70704792F0000F00F0C2
:104A5000004C02BF400010F4000F013AF9D040EAC8
:104A60000C0093F0000F01F0004C02BF490011F45C
:104A7000000F013BF9D041EA0C018FE70CEAD1535A
:104A800092EA0C0F18BF93EA0C0F0AD030F0004CDA
:104A900018BF31F0004CD8D180EA010000F000408E
:104AA000704790F0000F17BF90F0004F084691F04C
:104AB000000F91F0004F14D092EA0C0F01D1420286
:104AC0000FD193EA0C0F03D14B0218BF084608D14F
:104AD00080EA010000F0004040F0FE4040F4000099
:104AE000704740F0FE4040F4400070474FF0FF0C2C
:104AF0001CEAD0521EBF1CEAD15392EA0C0F93EA73
:104B00000C0F69D0A2EB030280EA010C49024FEAC4
:104B1000402037D04FF0805343EA111143EA10137D
:104B20000CF000408B4238BF5B0042F17D024FF435
:104B3000000C8B4224BF5B1A40EA0C00B3EB510F10
:104B400024BFA3EB510340EA5C00B3EB910F24BFF9
:104B5000A3EB910340EA9C00B3EBD10F24BFA3EB7E
:104B6000D10340EADC001B0118BF5FEA1C1CE0D146
:104B7000FD2A3FF650AF8B4240EBC25008BF20F0F9
:104B8000010070470CF0004C4CEA50207F32C2BF4D
:104B9000D2F1FF0340EAC250704740F400004FF0EA
:104BA0000003013A37E792F0000F00F0004C02BF1B
:104BB000400010F4000F013AF9D040EA0C0093F0E5
:104BC000000F01F0004C02BF490011F4000F013B3F
:104BD000F9D041EA0C0195E70CEAD15392EA0C0FA7
:104BE00008D142027FF47DAF93EA0C0F7FF470AFDF
:104BF000084676E793EA0C0F04D14B023FF44CAF22
:104C000008466EE730F0004C18BF31F0004CCAD1B6
:104C100030F000427FF45CAF31F000437FF43CAFF2
:104C20005FE700BF4FF0FF3C06E000BF4FF0010C14
:104C300002E000BF4FF0010C4DF804CD4FEA4002F6
:104C40004FEA41037FEA226C18BF7FEA236C11D040
:104C500001B052EA530C18BF90EA010F58BFB2EBF3
:104C6000030088BFC81738BF6FEAE17018BF40F073
:104C7000010070477FEA226C02D15FEA402C05D127
:104C80007FEA236CE4D15FEA412CE1D05DF8040BAC
:104C9000704700BF844608466146FFE70FB5FFF73F
:104CA000C9FF002848BF10F1000F0FBD4DF808EDF7
:104CB000FFF7F4FF0CBF012000205DF808FB00BFE8
:104CC0004DF808EDFFF7EAFF34BF012000205DF842
:104CD00008FB00BF4DF808EDFFF7E0FF94BF01208F
:104CE00000205DF808FB00BF4DF808EDFFF7D2FF8C
:104CF00094BF012000205DF808FB00BF4DF808EDCF
:104D0000FFF7C8FF34BF012000205DF808FB00BF9B
:104D100003460846194600F001B8FFFF70B5064C7F
:104D200006460D4613462CB131462A460220AFF303
:104D3000008070BD204670BD00000000014B186867
:104D4000704700BF7088FF1F70B50E4B0E4DED1AF7
:104D5000AD1000241E46AC4204D056F824209047E3
:104D60000134F8E700F082FA084D094BED1AAD1056
:104D700000241E46AC4204D056F82420904701344B
:104D8000F8E770BD785200007852000090520000A1
:104D900078520000024B0146186800F00BB800BFC3
:104DA0007088FF1F02440346934202D003F8011BA0
:104DB000FAE7704730B500293CD051F8042C0B1F9E
:104DC0001D49002AB8BF9B180A680C4612B95A60E0
:104DD0000B6030BD93420DD219685818904203D130
:104DE0005A581144426819605A60236030BD994294
:104DF00003D80A4651680029F9D1146815199D4253
:104E00000AD11B682344D0188842136012D1086865
:104E1000034413604B680CE002D90C23036030BDDF
:104E200018681C188C4203D10C684968204418602B
:104E30005960536030BD00BF1C8CFF1F034613F840
:104E4000012B002AFBD1181A0138704770B592B1B6
:104E50000B4605461C7810F8016BB44201F10101C4
:104E600001D1012A03D128781B78C01A70BD013AFC
:104E7000002CEDD1F7E7104670BDFFFFFFFFFFFFED
:104E80000000000000000000650400007104000044
:104E9000476F74203A20003D3D3D3D3D3D3D3D3D49
:104EA0003D3D3D3D3D3D3D3D3D3D3D3D3D3D3D3D32
:104EB0003D2073657474696E67203530003D3D3D5B
:104EC0003D3D3D3D3D3D3D3D3D3D3D3D3D3D3D3D12
:104ED0003D3D3D3D3D3D3D2073657474696E6720E9
:104EE0003430003D3D3D3D3D3D3D3D3D3D3D3D3D45
:104EF0003D3D3D3D3D3D3D3D3D3D3D3D3D207365A1
:104F00007474696E67203630007C002D002E000D11
:104F10000A050E08090D0C06070F04001303931A67
:104F20009217C585848687C44008FE4340A004408C
:104F30004408FE4344A004400018FE4300C004405F
:104F40003000FE43309004403400FE43349004406F
:104F50001C18FE431CC004401018FE4310C004403F
:104F60000818FE4308C004400C18FE430CC004405F
:104F70000C10FE430CB004401010FE4310B004406F
:104F80001810FE4318B004401C10FE431CB004402F
:104F90001410FE4314B004400418FE4304C004403F
:104FA0000010FE4300B004400008FE4300A004408F
:104FB0000408FE4304A004400C08FE430CA0044077
:104FC0000808FE4308A004401418FE4314C004401F
:104FD0001818FE4318C004400410FE4304B00440F7
:104FE0000810FE4308B004401400FE43149004402F
:104FF0004C08FE434CA004400420FE4304D004406F
:105000002410FE4324B004402010FE4320B004408E
:105010002810FE4328B004402C10FE432CB004405E
:105020000020FE4300D004404808FE4348A004404E
:105030001000FE431090044000000000000000003B
:10504000151600001B1600000516000009160000CA
:105050000D16000011160000000000000000000006
:10506000D1190000E9190000B9190000C1190000A8
:10507000BD190000C51900005D1900006F1900007E
:105080008F1900009319000099190000A919000058
:10509000C9190000CD1900002D19000039190000B0
:1050A0004519000051190000F9190000DD19000030
:1050B0000000000000000000D51A0000ED1A0000FA
:1050C000BD1A0000C51A0000C11A0000C91A00006C
:1050D000611A0000731A0000931A0000971A00006A
:1050E0009D1A0000AD1A0000CD1A0000D11A000070
:1050F000311A00003D1A0000491A0000551A00003C
:10510000FD1A0000E11A000000000000000000008D
:10511000D91B0000F11B0000C11B0000C91B0000CF
:10512000C51B0000CD1B0000651B0000771B0000A5
:10513000971B00009B1B0000A11B0000B11B00007F
:10514000D11B0000D51B0000351B0000411B0000D7
:105150004D1B0000591B0000011C0000E51B000056
:1051600000151915000100007087FF1F12000000D4
:10517000000200009A87FF1F4300000000030000A8
:10518000F487FF1F00000000010309048287FF1F4E
:105190000000000002030904DE87FF1F000000007A
:1051A00003030904F887FF1F00000000000000004F
:1051B0000000000000000000706F7700FFFFFFFF9D
:1051C00000000000000000000000004003B8E23FC3
:1051D000000000000000000006D0CF43EBFD4C3E75
:1051E000000000000000F03F000000000000F83F59
:1051F00000000000FFFFFFFF000000000000304340
:1052000000000000000030C34300FFFF000000006A
:10521000000000000000000000000000000000008E
:10522000000000000000000000000000000000007E
:10523000000000000000000000000000000000006E
:10524000000000000000000000000000000000005E
:10525000000000000000000000000000000000004E
:10526000000000000000000000000000F8B500BFD2
:10527000F8BC08BC9E467047350400008D0800004D
:1052800025160000151A0000191B00001D1C000047
:1052900000000000CDCCCC3C0A040000FFFFFFFF63
:1052A0001201000202000040C01683040001010246
:1052B000030118035400650065006E007300790057
:1052C0006400750069006E006F000902430002016E
:1052D00000C0320904000001020201000524001090
:1052E000010524010101042402060524060001072A
:1052F00005820310004009040100020A00000007B3
:105300000503024000000705840240000000160368
:1053100055005300420020005300650072006900F0
:1053200061006C00040309040C030000000000008D
:10533000000000000000000000000000000001006C
:10534000000000000C5200002C5200004C520000E3
:10535000000000000000000000000000000000004D
:1053600008520000000000000000000000000000E3
:10537000000000000000000000000000000000002D
:10538000000000000000000000000000000000001D
:10539000000000000000000000000000000000000D
:0453A0001088FF1F53
:00000001FF
